{
  "contractName": "ProgPayETH",
  "abi": [
    {
      "constant": true,
      "inputs": [],
      "name": "forceDissolveStartTime",
      "outputs": [
        {
          "name": "",
          "type": "uint256"
        }
      ],
      "payable": false,
      "stateMutability": "view",
      "type": "function"
    },
    {
      "constant": true,
      "inputs": [],
      "name": "payer",
      "outputs": [
        {
          "name": "",
          "type": "address"
        }
      ],
      "payable": false,
      "stateMutability": "view",
      "type": "function"
    },
    {
      "constant": true,
      "inputs": [],
      "name": "contractTerminated",
      "outputs": [
        {
          "name": "",
          "type": "bool"
        }
      ],
      "payable": false,
      "stateMutability": "view",
      "type": "function"
    },
    {
      "constant": true,
      "inputs": [],
      "name": "payerWantsOut",
      "outputs": [
        {
          "name": "",
          "type": "bool"
        }
      ],
      "payable": false,
      "stateMutability": "view",
      "type": "function"
    },
    {
      "constant": true,
      "inputs": [],
      "name": "nextPayment",
      "outputs": [
        {
          "name": "",
          "type": "uint256"
        }
      ],
      "payable": false,
      "stateMutability": "view",
      "type": "function"
    },
    {
      "constant": true,
      "inputs": [],
      "name": "payeeWantsOut",
      "outputs": [
        {
          "name": "",
          "type": "bool"
        }
      ],
      "payable": false,
      "stateMutability": "view",
      "type": "function"
    },
    {
      "constant": true,
      "inputs": [],
      "name": "numberOfPayments",
      "outputs": [
        {
          "name": "",
          "type": "uint256"
        }
      ],
      "payable": false,
      "stateMutability": "view",
      "type": "function"
    },
    {
      "constant": true,
      "inputs": [],
      "name": "forceDissolveDelay",
      "outputs": [
        {
          "name": "",
          "type": "uint256"
        }
      ],
      "payable": false,
      "stateMutability": "view",
      "type": "function"
    },
    {
      "constant": true,
      "inputs": [
        {
          "name": "",
          "type": "uint256"
        }
      ],
      "name": "paymentNumberToRequested",
      "outputs": [
        {
          "name": "",
          "type": "bool"
        }
      ],
      "payable": false,
      "stateMutability": "view",
      "type": "function"
    },
    {
      "constant": true,
      "inputs": [
        {
          "name": "",
          "type": "uint256"
        }
      ],
      "name": "paymentNumberToApproved",
      "outputs": [
        {
          "name": "",
          "type": "bool"
        }
      ],
      "payable": false,
      "stateMutability": "view",
      "type": "function"
    },
    {
      "constant": true,
      "inputs": [],
      "name": "payeeMediatorAddress",
      "outputs": [
        {
          "name": "",
          "type": "address"
        }
      ],
      "payable": false,
      "stateMutability": "view",
      "type": "function"
    },
    {
      "constant": true,
      "inputs": [],
      "name": "contractFunded",
      "outputs": [
        {
          "name": "",
          "type": "bool"
        }
      ],
      "payable": false,
      "stateMutability": "view",
      "type": "function"
    },
    {
      "constant": true,
      "inputs": [],
      "name": "contractValueInWei",
      "outputs": [
        {
          "name": "",
          "type": "uint256"
        }
      ],
      "payable": false,
      "stateMutability": "view",
      "type": "function"
    },
    {
      "constant": true,
      "inputs": [],
      "name": "payee",
      "outputs": [
        {
          "name": "",
          "type": "address"
        }
      ],
      "payable": false,
      "stateMutability": "view",
      "type": "function"
    },
    {
      "constant": true,
      "inputs": [
        {
          "name": "",
          "type": "uint256"
        }
      ],
      "name": "paymentNumberToValue",
      "outputs": [
        {
          "name": "",
          "type": "uint256"
        }
      ],
      "payable": false,
      "stateMutability": "view",
      "type": "function"
    },
    {
      "constant": true,
      "inputs": [],
      "name": "payerMediatorAddress",
      "outputs": [
        {
          "name": "",
          "type": "address"
        }
      ],
      "payable": false,
      "stateMutability": "view",
      "type": "function"
    },
    {
      "inputs": [
        {
          "name": "_payer",
          "type": "address"
        },
        {
          "name": "_payee",
          "type": "address"
        },
        {
          "name": "_contractValueInWei",
          "type": "uint256"
        },
        {
          "name": "_numberOfPayments",
          "type": "uint256"
        },
        {
          "name": "_forceDissolveDelay",
          "type": "uint256"
        }
      ],
      "payable": false,
      "stateMutability": "nonpayable",
      "type": "constructor"
    },
    {
      "constant": false,
      "inputs": [],
      "name": "initialDeposit",
      "outputs": [
        {
          "name": "",
          "type": "bool"
        }
      ],
      "payable": true,
      "stateMutability": "payable",
      "type": "function"
    },
    {
      "constant": false,
      "inputs": [],
      "name": "requestPayment",
      "outputs": [
        {
          "name": "",
          "type": "bool"
        }
      ],
      "payable": false,
      "stateMutability": "nonpayable",
      "type": "function"
    },
    {
      "constant": false,
      "inputs": [],
      "name": "approvePayment",
      "outputs": [
        {
          "name": "",
          "type": "bool"
        }
      ],
      "payable": false,
      "stateMutability": "nonpayable",
      "type": "function"
    },
    {
      "constant": false,
      "inputs": [],
      "name": "dissolve",
      "outputs": [
        {
          "name": "",
          "type": "bool"
        }
      ],
      "payable": true,
      "stateMutability": "payable",
      "type": "function"
    },
    {
      "constant": false,
      "inputs": [],
      "name": "forceDissolve",
      "outputs": [
        {
          "name": "",
          "type": "bool"
        }
      ],
      "payable": true,
      "stateMutability": "payable",
      "type": "function"
    },
    {
      "constant": false,
      "inputs": [],
      "name": "toggleAgreeToDissolve",
      "outputs": [
        {
          "name": "",
          "type": "bool"
        }
      ],
      "payable": false,
      "stateMutability": "nonpayable",
      "type": "function"
    },
    {
      "constant": false,
      "inputs": [],
      "name": "resetForceDissolve",
      "outputs": [
        {
          "name": "",
          "type": "bool"
        }
      ],
      "payable": false,
      "stateMutability": "nonpayable",
      "type": "function"
    },
    {
      "constant": false,
      "inputs": [
        {
          "name": "_mediatorAddress",
          "type": "address"
        }
      ],
      "name": "setMediatorAddress",
      "outputs": [
        {
          "name": "",
          "type": "bool"
        }
      ],
      "payable": false,
      "stateMutability": "nonpayable",
      "type": "function"
    },
    {
      "constant": true,
      "inputs": [],
      "name": "timeRemaining",
      "outputs": [
        {
          "name": "",
          "type": "uint256"
        }
      ],
      "payable": false,
      "stateMutability": "view",
      "type": "function"
    },
    {
      "constant": true,
      "inputs": [],
      "name": "remainingBalance",
      "outputs": [
        {
          "name": "",
          "type": "uint256"
        }
      ],
      "payable": false,
      "stateMutability": "view",
      "type": "function"
    }
  ],
  "bytecode": "0x608060405234801561001057600080fd5b50604051610cac380380610cac833981810160405260a081101561003357600080fd5b508051602082015160408301516060840151608090940151600080546001600160a01b038087166001600160a01b0319928316178355600180549187169190921617815560028490556003879055600d556004805461ffff191690556005556006819055929391929091908183816100a757fe5b04600e5560015b6003546001018110156100f9576000818152600960209081526040808320805460ff19908116909155600a835281842080549091169055600e54600b909252909120556001016100ae565b5050600354600e546002546000838152600b60205260409020805492909302900301905550505050610b7c806101306000396000f3fe6080604052600436106101815760003560e01c8063728b32bb116100d1578063a41e56001161008a578063da25de3c11610064578063da25de3c146103d9578063e037f889146103ee578063e3cfef60146103f6578063f8158ad21461040b57610181565b8063a41e560014610385578063ae90b2131461039a578063b812be27146103af57610181565b8063728b32bb146102ff57806376d5c715146103075780637b5b4b8914610331578063907a087014610346578063945aef231461035b57806396fd34091461037057610181565b80633042c9951161013e578063422f963c11610118578063422f963c146102965780634b4e6fd9146102ab578063556ff3fa146102c057806363bdb94b146102ea57610181565b80633042c9951461024657806332c07120146102795780633bef8a3a1461028e57610181565b806304c2816c14610186578063123119cd146101ad5780631a2c2a2b146101de5780631e1f916a1461020757806325d056d31461021c5780632d37802614610231575b600080fd5b34801561019257600080fd5b5061019b610420565b60408051918252519081900360200190f35b3480156101b957600080fd5b506101c2610426565b604080516001600160a01b039092168252519081900360200190f35b3480156101ea57600080fd5b506101f3610435565b604080519115158252519081900360200190f35b34801561021357600080fd5b506101f3610443565b34801561022857600080fd5b506101f36104f4565b34801561023d57600080fd5b5061019b6104fd565b34801561025257600080fd5b506101f36004803603602081101561026957600080fd5b50356001600160a01b0316610503565b34801561028557600080fd5b506101f361059e565b6101f36105ac565b3480156102a257600080fd5b5061019b610669565b3480156102b757600080fd5b5061019b61066f565b3480156102cc57600080fd5b506101f3600480360360208110156102e357600080fd5b5035610675565b3480156102f657600080fd5b506101f361068a565b6101f361071b565b34801561031357600080fd5b506101f36004803603602081101561032a57600080fd5b50356108e9565b34801561033d57600080fd5b506101c26108fe565b34801561035257600080fd5b506101f361090d565b34801561036757600080fd5b506101f361096b565b34801561037c57600080fd5b506101f3610974565b34801561039157600080fd5b5061019b610a92565b3480156103a657600080fd5b506101c2610a98565b3480156103bb57600080fd5b5061019b600480360360208110156103d257600080fd5b5035610aa7565b3480156103e557600080fd5b5061019b610ab9565b6101f3610abe565b34801561040257600080fd5b5061019b610b1d565b34801561041757600080fd5b506101c2610b38565b60055481565b6000546001600160a01b031681565b600c54610100900460ff1681565b600c54600090610100900460ff161561045b57600080fd5b6000546001600160a01b031633148061047e57506001546001600160a01b031633145b61048757600080fd5b600c5460ff16151560011461049b57600080fd5b600d546104a757600080fd5b6000546001600160a01b03163314156104d1576004805460ff19811660ff909116151790556104ed565b6004805461ff001981166101009182900460ff16159091021790555b5060015b90565b60045460ff1681565b600d5481565b600c54600090610100900460ff161561051b57600080fd5b6000546001600160a01b031633148061053e57506001546001600160a01b031633145b61054757600080fd5b6000546001600160a01b031633141561057a57600780546001600160a01b0319166001600160a01b038416179055610596565b600880546001600160a01b0319166001600160a01b0384161790555b506001919050565b600454610100900460ff1681565b600c54600090610100900460ff16156105c457600080fd5b600454610100900460ff1680156105dd575060045460ff165b6105e657600080fd5b6000546001600160a01b031633148061060957506001546001600160a01b031633145b61061257600080fd5b600c805461ffff19166101001790556000600d81905580546040516001600160a01b0390911691303180156108fc02929091818181858888f19350505050158015610661573d6000803e3d6000fd5b506001905090565b60035481565b60065481565b60096020526000908152604090205460ff1681565b600c54600090610100900460ff16156106a257600080fd5b600c5460ff1615156001146106b657600080fd5b6001546001600160a01b031633146106cd57600080fd5b600d5460009081526009602052604090205460ff16156106ec57600080fd5b600d546106f857600080fd5b50600d546000908152600960205260409020805460ff1916600190811790915590565b600c54600090610100900460ff161561073357600080fd5b600454610100900460ff168061074b575060045460ff165b61075457600080fd5b6000546001600160a01b031633148061077757506001546001600160a01b031633145b61078057600080fd5b6007546001600160a01b0316158015906107a457506008546001600160a01b031615155b80156107c057506008546007546001600160a01b039081169116145b1561081457600c805461ffff19166101001790556007546040516001600160a01b0390911690303180156108fc02916000818181858888f1935050505015801561080e573d6000803e3d6000fd5b506104ed565b60055461082457426005556104ed565b600654600554014211156108e157600d546000908152600b6020526040808220805490839055600c805461ffff19166101001790556001549151303193600290920492838503926001600160a01b039091169184156108fc0291859190818181858888f1935050505015801561089e573d6000803e3d6000fd5b50600080546040516001600160a01b039091169183156108fc02918491818181858888f193505050501580156108d8573d6000803e3d6000fd5b505050506104ed565b5060006104f1565b600a6020526000908152604090205460ff1681565b6008546001600160a01b031681565b600454600090610100900460ff1615801561092b575060045460ff16155b61093457600080fd5b6000546001600160a01b031633148061095757506001546001600160a01b031633145b61096057600080fd5b506000600555600190565b600c5460ff1681565b600d546000908152600b6020526040812054600c54610100900460ff161561099b57600080fd5b600c5460ff1615156001146109af57600080fd5b6000546001600160a01b031633146109c657600080fd5b600d546109d257600080fd5b600d5460009081526009602052604090205460ff1615156001146109f557600080fd5b600d80546000908152600a60209081526040808320805460ff1916600117905583548352600b90915281205560035490541015610a3a57600d80546001019055610a4f565b600c805461ffff19166101001790556000600d555b6001546040516001600160a01b039091169082156108fc029083906000818181858888f19350505050158015610a89573d6000803e3d6000fd5b50600191505090565b60025481565b6001546001600160a01b031681565b600b6020526000908152604090205481565b303190565b600080546001600160a01b03163314610ad657600080fd5b6002543414610ae457600080fd5b600c5460ff1615610af457600080fd5b600c54610100900460ff1615610b0957600080fd5b50600c805460ff1916600190811790915590565b600554600090156108e15742600654600554010390506104f1565b6007546001600160a01b03168156fea265627a7a72305820cd7ebc365c0230bfc71c68b02218007bf5354a2ead7385e67a710e966a4d20f564736f6c63430005090032",
  "source": "pragma solidity ^0.5.9;\n\n// Add events!!!\n// modify for DAI, USTC, USDT, etc\n// check forceDissolve() reentrancy vulnerability\n\n\ncontract ProgPayETH {\n\n    //payer is purchasing a service from payee\n\n    address payable public payer;\n    address payable public payee;\n\n    //total value of the service contract spread over number of payments\n    uint256 public contractValueInWei;\n    uint256 public numberOfPayments;\n\n    //parties signal desire to dissolve\n    bool public payerWantsOut;\n    bool public payeeWantsOut;\n\n    //when only one party wants to dissolve start time set by forceDissolve() and delay (in seconds) set by constructor\n    uint256 public forceDissolveStartTime;\n    uint256 public forceDissolveDelay;\n\n    //second option to dissolve by providing a mediator who will mediate fund distribution outside of contract. parties signal\n    //their choice using setMediatorAddress() and they must match in order to enable dissolution\n    //address payable public payerMediatorAddress=0x0000000000000000000000000000000000000000;\n    //address payable public payeeMediatorAddress=0x0000000000000000000000000000000000000001;\n    address payable public payerMediatorAddress;\n    address payable public payeeMediatorAddress;\n\n    //has a payment number been requested?\n    mapping(uint256 => bool) public paymentNumberToRequested;\n\n    //has a payment number been approved? payment triggered automatically upon approval.\n    mapping(uint256 => bool) public paymentNumberToApproved;\n\n    //value of each payment (last payment might be larger based on quotient result)\n    mapping(uint256 => uint256) public paymentNumberToValue;\n\n    bool public contractFunded;\n    bool public contractTerminated;\n    uint256 public nextPayment;\n\n    uint quotient;\n\n\n    constructor(address payable _payer, address payable _payee, uint256 _contractValueInWei, uint256 _numberOfPayments, uint256 _forceDissolveDelay) public {\n        payer = _payer;\n        payee = _payee;\n        contractValueInWei = _contractValueInWei;\n        numberOfPayments = _numberOfPayments;\n\n        //set first payment\n        nextPayment=1;\n\n        //preset dissolution variables here\n        payeeWantsOut = false;\n        payerWantsOut = false;\n        forceDissolveStartTime = 0;\n        forceDissolveDelay = _forceDissolveDelay;\n\n        quotient = contractValueInWei/numberOfPayments;\n\n        for (uint256 i=1;i<numberOfPayments+1;i++){\n            paymentNumberToRequested[i]=false;\n            paymentNumberToApproved[i]=false;\n\n            paymentNumberToValue[i]=quotient;\n\n        }\n        paymentNumberToValue[numberOfPayments]+=contractValueInWei-quotient*numberOfPayments;\n    }\n\n    //payer desosits contract value here, triggering beginning of contract payment process. requires deposit amount to match contract value exactly\n    function initialDeposit() public payable returns(bool) {\n        require(msg.sender==payer);\n        require(msg.value==contractValueInWei);\n        require(contractFunded==false);\n        require(contractTerminated==false);\n        contractFunded = true;\n        return true;\n    }\n\n    //payee can request a payment only after contract is funded and not after all payments have been completed.\n    function requestPayment() public returns(bool){\n        require(contractTerminated==false);\n        require(contractFunded==true);\n        require(msg.sender==payee);\n        require(paymentNumberToRequested[nextPayment]==false);\n        require(nextPayment != 0);\n        paymentNumberToRequested[nextPayment]=true;\n        return true;\n    }\n\n    //payer approves payment and initiates transaciton in the same transaction. payment must be requested by payee and contract must be funded.\n    //payee received funds upon aproval\n    function approvePayment() public returns(bool){\n        uint256 amountToSend = paymentNumberToValue[nextPayment];\n        require(contractTerminated==false);\n        require(contractFunded==true);\n        require(msg.sender==payer);\n        require(nextPayment != 0);\n        require(paymentNumberToRequested[nextPayment]==true);\n        paymentNumberToApproved[nextPayment]=true;\n        paymentNumberToValue[nextPayment]=0;\n        if(nextPayment<numberOfPayments){\n            nextPayment++;\n        } else {\n            contractFunded=false;\n            contractTerminated=true;\n            nextPayment=0;\n        }\n        payee.transfer(amountToSend);\n        return true;\n    }\n\n   \n\n    //if both payer and payee are in agreement to dissolve return balance of contract to payer\n    function dissolve() public payable returns(bool){\n        require(contractTerminated==false);\n        require(payeeWantsOut && payerWantsOut);\n        require(msg.sender==payer || msg.sender==payee);\n        contractFunded=false;\n        contractTerminated=true;\n        nextPayment=0;\n        payer.transfer(address(this).balance);\n        return true;\n    }\n\n    //if only one party wants to dissolve can force a timer (in seconds, set at deployment) after which the contract can\n    //be dissolved without both parties agreement where nextPayment is split between both parties --or-- both payer and payee\n    //can signal for an agreed upon mediator to receive the funds who would then distribute them per a mediation agreement\n    //outside of this contract.\n    function forceDissolve() public payable returns(bool){\n        require(contractTerminated==false);\n        require(payeeWantsOut || payerWantsOut);\n         require(msg.sender==payer || msg.sender==payee);\n        if (payerMediatorAddress != address(0) && payeeMediatorAddress != address(0) && payerMediatorAddress == payeeMediatorAddress){\n            contractFunded=false;\n            contractTerminated=true;\n            payerMediatorAddress.transfer(address(this).balance);\n        } else {\n            if (forceDissolveStartTime == 0){\n              forceDissolveStartTime = now;\n            } else if (now > forceDissolveStartTime + forceDissolveDelay){\n                uint256 contractBalanceRemaining = address(this).balance;\n                uint256 splitLastPayment = paymentNumberToValue[nextPayment]/2;\n                uint256 balanceReturnToPayer = contractBalanceRemaining-splitLastPayment;\n                paymentNumberToValue[nextPayment]=0;\n                contractFunded=false;\n                contractTerminated=true;\n                payee.transfer(splitLastPayment);\n                payer.transfer(balanceReturnToPayer);\n            } else {\n            return false;\n            }\n        }\n\n        return true;\n    }\n    \n     //allows each party to signal their interest to dissolve contract. contract must be funded\n     function toggleAgreeToDissolve() public returns(bool){\n         require(contractTerminated==false);\n        require(msg.sender==payer || msg.sender==payee);\n        require(contractFunded==true);\n        require(nextPayment != 0);\n        if (msg.sender==payer){\n            payerWantsOut = !payerWantsOut;\n        } else {\n            payeeWantsOut = !payeeWantsOut;\n        }\n        return true;\n    }\n\n    //if payer and payee find common ground and choose to continue with initial contract can reset the forceDissolve() timer\n    //and keep going with initial agreement\n    function resetForceDissolve() public returns(bool){\n        require(!payeeWantsOut && !payerWantsOut);\n        require(msg.sender==payer || msg.sender==payee);\n        forceDissolveStartTime = 0;\n        return true;\n    }\n\n    //payer and payee can confirm agreement to mediation by providing the same mediator address\n    function setMediatorAddress(address payable _mediatorAddress) public returns(bool){\n        require(contractTerminated==false);\n        require(msg.sender==payer || msg.sender==payee);\n        if (msg.sender==payer){\n            payerMediatorAddress = _mediatorAddress;\n        } else {\n            payeeMediatorAddress = _mediatorAddress;\n        }\n        return true;\n    }\n\n    //returns time remaining until forceDissolve() will split nextPayment and destroy contract\n    function timeRemaining() public view returns(uint256){\n        if (forceDissolveStartTime > 0){\n        return forceDissolveStartTime + forceDissolveDelay - now;\n        } else {\n            return 0;\n        }\n    }\n\n    //returns remaining balance, used while testing in JavaScript VM mode can be removed for mainnet as contract\n    //balance appears on Etherscan\n    function remainingBalance() public view returns(uint256){\n        return address(this).balance;\n    }\n\n\n\n}\n\n\n//    \"0xa0759e5069bd17919ed7426bc3D246b610D7362e\",\"0xc28DAFE415B15465BFbEEaE8D203843Bf5D61DF5\",\"12500000000000000000\",\"6\",\"300\"\n",
  "sourcePath": "/Users/erick/eth/progpay/contracts/ProgPayETH.sol",
  "compiler": {
    "name": "solc",
    "version": "0.5.9+commit.e560f70d.Emscripten.clang"
  },
  "schemaVersion": "3.0.23",
  "updatedAt": "2020-03-26T04:19:26.068Z",
  "networkType": "ethereum",
  "devdoc": {
    "methods": {}
  },
  "userdoc": {
    "methods": {}
  }
}