{
  "contractName": "ProgPayETH",
  "abi": [
    {
      "constant": true,
      "inputs": [],
      "name": "forceDissolveStartTime",
      "outputs": [
        {
          "name": "",
          "type": "uint256"
        }
      ],
      "payable": false,
      "stateMutability": "view",
      "type": "function"
    },
    {
      "constant": true,
      "inputs": [],
      "name": "payer",
      "outputs": [
        {
          "name": "",
          "type": "address"
        }
      ],
      "payable": false,
      "stateMutability": "view",
      "type": "function"
    },
    {
      "constant": true,
      "inputs": [],
      "name": "contractTerminated",
      "outputs": [
        {
          "name": "",
          "type": "bool"
        }
      ],
      "payable": false,
      "stateMutability": "view",
      "type": "function"
    },
    {
      "constant": true,
      "inputs": [],
      "name": "payerWantsOut",
      "outputs": [
        {
          "name": "",
          "type": "bool"
        }
      ],
      "payable": false,
      "stateMutability": "view",
      "type": "function"
    },
    {
      "constant": true,
      "inputs": [],
      "name": "nextPayment",
      "outputs": [
        {
          "name": "",
          "type": "uint256"
        }
      ],
      "payable": false,
      "stateMutability": "view",
      "type": "function"
    },
    {
      "constant": true,
      "inputs": [],
      "name": "payeeWantsOut",
      "outputs": [
        {
          "name": "",
          "type": "bool"
        }
      ],
      "payable": false,
      "stateMutability": "view",
      "type": "function"
    },
    {
      "constant": true,
      "inputs": [],
      "name": "numberOfPayments",
      "outputs": [
        {
          "name": "",
          "type": "uint256"
        }
      ],
      "payable": false,
      "stateMutability": "view",
      "type": "function"
    },
    {
      "constant": true,
      "inputs": [],
      "name": "forceDissolveDelay",
      "outputs": [
        {
          "name": "",
          "type": "uint256"
        }
      ],
      "payable": false,
      "stateMutability": "view",
      "type": "function"
    },
    {
      "constant": true,
      "inputs": [
        {
          "name": "",
          "type": "uint256"
        }
      ],
      "name": "paymentNumberToRequested",
      "outputs": [
        {
          "name": "",
          "type": "bool"
        }
      ],
      "payable": false,
      "stateMutability": "view",
      "type": "function"
    },
    {
      "constant": true,
      "inputs": [],
      "name": "contractName",
      "outputs": [
        {
          "name": "",
          "type": "string"
        }
      ],
      "payable": false,
      "stateMutability": "view",
      "type": "function"
    },
    {
      "constant": true,
      "inputs": [
        {
          "name": "",
          "type": "uint256"
        }
      ],
      "name": "paymentNumberToApproved",
      "outputs": [
        {
          "name": "",
          "type": "bool"
        }
      ],
      "payable": false,
      "stateMutability": "view",
      "type": "function"
    },
    {
      "constant": true,
      "inputs": [],
      "name": "payeeMediatorAddress",
      "outputs": [
        {
          "name": "",
          "type": "address"
        }
      ],
      "payable": false,
      "stateMutability": "view",
      "type": "function"
    },
    {
      "constant": true,
      "inputs": [],
      "name": "contractFunded",
      "outputs": [
        {
          "name": "",
          "type": "bool"
        }
      ],
      "payable": false,
      "stateMutability": "view",
      "type": "function"
    },
    {
      "constant": true,
      "inputs": [],
      "name": "contractValueInWei",
      "outputs": [
        {
          "name": "",
          "type": "uint256"
        }
      ],
      "payable": false,
      "stateMutability": "view",
      "type": "function"
    },
    {
      "constant": true,
      "inputs": [],
      "name": "payee",
      "outputs": [
        {
          "name": "",
          "type": "address"
        }
      ],
      "payable": false,
      "stateMutability": "view",
      "type": "function"
    },
    {
      "constant": true,
      "inputs": [
        {
          "name": "",
          "type": "uint256"
        }
      ],
      "name": "paymentNumberToValue",
      "outputs": [
        {
          "name": "",
          "type": "uint256"
        }
      ],
      "payable": false,
      "stateMutability": "view",
      "type": "function"
    },
    {
      "constant": true,
      "inputs": [],
      "name": "payerMediatorAddress",
      "outputs": [
        {
          "name": "",
          "type": "address"
        }
      ],
      "payable": false,
      "stateMutability": "view",
      "type": "function"
    },
    {
      "inputs": [
        {
          "name": "_payer",
          "type": "address"
        },
        {
          "name": "_payee",
          "type": "address"
        },
        {
          "name": "_contractValueInWei",
          "type": "uint256"
        },
        {
          "name": "_numberOfPayments",
          "type": "uint256"
        },
        {
          "name": "_forceDissolveDelay",
          "type": "uint256"
        }
      ],
      "payable": false,
      "stateMutability": "nonpayable",
      "type": "constructor"
    },
    {
      "constant": false,
      "inputs": [],
      "name": "initialDeposit",
      "outputs": [
        {
          "name": "",
          "type": "bool"
        }
      ],
      "payable": true,
      "stateMutability": "payable",
      "type": "function"
    },
    {
      "constant": false,
      "inputs": [],
      "name": "requestPayment",
      "outputs": [
        {
          "name": "",
          "type": "bool"
        }
      ],
      "payable": false,
      "stateMutability": "nonpayable",
      "type": "function"
    },
    {
      "constant": false,
      "inputs": [],
      "name": "approvePayment",
      "outputs": [
        {
          "name": "",
          "type": "bool"
        }
      ],
      "payable": false,
      "stateMutability": "nonpayable",
      "type": "function"
    },
    {
      "constant": false,
      "inputs": [],
      "name": "dissolve",
      "outputs": [
        {
          "name": "",
          "type": "bool"
        }
      ],
      "payable": true,
      "stateMutability": "payable",
      "type": "function"
    },
    {
      "constant": false,
      "inputs": [],
      "name": "forceDissolve",
      "outputs": [
        {
          "name": "",
          "type": "bool"
        }
      ],
      "payable": true,
      "stateMutability": "payable",
      "type": "function"
    },
    {
      "constant": false,
      "inputs": [],
      "name": "toggleAgreeToDissolve",
      "outputs": [
        {
          "name": "",
          "type": "bool"
        }
      ],
      "payable": false,
      "stateMutability": "nonpayable",
      "type": "function"
    },
    {
      "constant": false,
      "inputs": [],
      "name": "resetForceDissolve",
      "outputs": [
        {
          "name": "",
          "type": "bool"
        }
      ],
      "payable": false,
      "stateMutability": "nonpayable",
      "type": "function"
    },
    {
      "constant": false,
      "inputs": [
        {
          "name": "_mediatorAddress",
          "type": "address"
        }
      ],
      "name": "setMediatorAddress",
      "outputs": [
        {
          "name": "",
          "type": "bool"
        }
      ],
      "payable": false,
      "stateMutability": "nonpayable",
      "type": "function"
    },
    {
      "constant": true,
      "inputs": [],
      "name": "timeRemaining",
      "outputs": [
        {
          "name": "",
          "type": "uint256"
        }
      ],
      "payable": false,
      "stateMutability": "view",
      "type": "function"
    },
    {
      "constant": true,
      "inputs": [],
      "name": "remainingBalance",
      "outputs": [
        {
          "name": "",
          "type": "uint256"
        }
      ],
      "payable": false,
      "stateMutability": "view",
      "type": "function"
    }
  ],
  "bytecode": "0x60c0604052601560808190527f50726f6772657373205061796d656e747320455448000000000000000000000060a09081526200004091600e91906200016c565b503480156200004e57600080fd5b506040516200104c3803806200104c833981810160405260a08110156200007457600080fd5b508051602082015160408301516060840151608090940151600080546001600160a01b038087166001600160a01b0319928316178355600180549187169190921617815560028490556003879055600d556004805461ffff19169055600555600681905592939192909190818381620000e957fe5b04600f5560015b6003546001018110156200013d576000818152600960209081526040808320805460ff19908116909155600a835281842080549091169055600f54600b90925290912055600101620000f0565b5050600354600f546002546000838152600b602052604090208054929093029003019055506200021192505050565b828054600181600116156101000203166002900490600052602060002090601f016020900481019282601f10620001af57805160ff1916838001178555620001df565b82800160010185558215620001df579182015b82811115620001df578251825591602001919060010190620001c2565b50620001ed929150620001f1565b5090565b6200020e91905b80821115620001ed5760008155600101620001f8565b90565b610e2b80620002216000396000f3fe60806040526004361061019c5760003560e01c8063728b32bb116100ec578063a41e56001161008a578063da25de3c11610064578063da25de3c1461047e578063e037f88914610493578063e3cfef601461049b578063f8158ad2146104b05761019c565b8063a41e56001461042a578063ae90b2131461043f578063b812be27146104545761019c565b80637b5b4b89116100c65780637b5b4b89146103d6578063907a0870146103eb578063945aef231461040057806396fd3409146104155761019c565b8063728b32bb1461031a57806375d0c0dc1461032257806376d5c715146103ac5761019c565b80633042c99511610159578063422f963c11610133578063422f963c146102b15780634b4e6fd9146102c6578063556ff3fa146102db57806363bdb94b146103055761019c565b80633042c9951461026157806332c07120146102945780633bef8a3a146102a95761019c565b806304c2816c146101a1578063123119cd146101c85780631a2c2a2b146101f95780631e1f916a1461022257806325d056d3146102375780632d3780261461024c575b600080fd5b3480156101ad57600080fd5b506101b66104c5565b60408051918252519081900360200190f35b3480156101d457600080fd5b506101dd6104cb565b604080516001600160a01b039092168252519081900360200190f35b34801561020557600080fd5b5061020e6104da565b604080519115158252519081900360200190f35b34801561022e57600080fd5b5061020e6104e8565b34801561024357600080fd5b5061020e6105eb565b34801561025857600080fd5b506101b66105f4565b34801561026d57600080fd5b5061020e6004803603602081101561028457600080fd5b50356001600160a01b03166105fa565b3480156102a057600080fd5b5061020e610695565b61020e6106a3565b3480156102bd57600080fd5b506101b6610855565b3480156102d257600080fd5b506101b661085b565b3480156102e757600080fd5b5061020e600480360360208110156102fe57600080fd5b5035610861565b34801561031157600080fd5b5061020e610876565b61020e610917565b34801561032e57600080fd5b50610337610b14565b6040805160208082528351818301528351919283929083019185019080838360005b83811015610371578181015183820152602001610359565b50505050905090810190601f16801561039e5780820380516001836020036101000a031916815260200191505b509250505060405180910390f35b3480156103b857600080fd5b5061020e600480360360208110156103cf57600080fd5b5035610ba2565b3480156103e257600080fd5b506101dd610bb7565b3480156103f757600080fd5b5061020e610bc6565b34801561040c57600080fd5b5061020e610c24565b34801561042157600080fd5b5061020e610c2d565b34801561043657600080fd5b506101b6610d41565b34801561044b57600080fd5b506101dd610d47565b34801561046057600080fd5b506101b66004803603602081101561047757600080fd5b5035610d56565b34801561048a57600080fd5b506101b6610d68565b61020e610d6d565b3480156104a757600080fd5b506101b6610dcc565b3480156104bc57600080fd5b506101dd610de7565b60055481565b6000546001600160a01b031681565b600c54610100900460ff1681565b600c54600090610100900460ff161561050057600080fd5b6000546001600160a01b031633148061052357506001546001600160a01b031633145b61052c57600080fd5b600c5460ff1661053b57600080fd5b600d5461054757600080fd5b6000546001600160a01b0316331415610571576004805460ff19811660ff909116151790556105e4565b600d5460009081526009602052604090205460ff161515600114156105c85760045460ff16156105bb576004805461ff001981166101009182900460ff16159091021790556105c3565b5060006105e8565b6105e4565b6004805461ff001981166101009182900460ff16159091021790555b5060015b90565b60045460ff1681565b600d5481565b600c54600090610100900460ff161561061257600080fd5b6000546001600160a01b031633148061063557506001546001600160a01b031633145b61063e57600080fd5b6000546001600160a01b031633141561067157600780546001600160a01b0319166001600160a01b03841617905561068d565b600880546001600160a01b0319166001600160a01b0384161790555b506001919050565b600454610100900460ff1681565b600c54600090610100900460ff16156106bb57600080fd5b600454610100900460ff1680156106d4575060045460ff165b6106dd57600080fd5b6000546001600160a01b031633148061070057506001546001600160a01b031633145b61070957600080fd5b6005541561071657600080fd5b600d5460009081526009602052604090205460ff16156107ff57600d80546000908152600b602052604080822054600c805461ffff1916610100179055928290558180527fdf7de25b7f1fd6d0b5205f0e18f1f35bd7b8d84cce336588d184533ce43a6f76829055600154905130319392838503926001600160a01b03169184156108fc0291859190818181858888f193505050501580156107bc573d6000803e3d6000fd5b50600080546040516001600160a01b039091169183156108fc02918491818181858888f193505050501580156107f6573d6000803e3d6000fd5b505050506105e4565b600c805461ffff19166101001790556000600d81905580546040516001600160a01b0390911691303180156108fc02929091818181858888f1935050505015801561084e573d6000803e3d6000fd5b5050600190565b60035481565b60065481565b60096020526000908152604090205460ff1681565b600454600090610100900460ff161561088e57600080fd5b600c54610100900460ff16156108a357600080fd5b600c5460ff166108b257600080fd5b6001546001600160a01b031633146108c957600080fd5b600d5460009081526009602052604090205460ff16156108e857600080fd5b600d546108f457600080fd5b50600d546000908152600960205260409020805460ff1916600190811790915590565b600c54600090610100900460ff161561092f57600080fd5b600d5460009081526009602052604090205460ff16156109c1576000546001600160a01b03163314806109b357506000546001600160a01b03163314801561098157506007546001600160a01b031615155b801561099757506008546001600160a01b031615155b80156109b357506008546007546001600160a01b039081169116145b6109bc57600080fd5b6109ed565b6000546001600160a01b03163314806109e457506001546001600160a01b031633145b6109ed57600080fd5b6007546001600160a01b031615801590610a1157506008546001600160a01b031615155b8015610a2d57506008546007546001600160a01b039081169116145b15610a8857600c805461ffff19166101001790556000600d8190556007546040516001600160a01b0390911691303180156108fc02929091818181858888f19350505050158015610a82573d6000803e3d6000fd5b506105e4565b600554610a9857426005556105e4565b600654600554014211156105bb57600d80546000908152600b602052604080822080549083905592829055600c805461ffff191661010017905560015490513031936002900492838503926001600160a01b03169184156108fc0291859190818181858888f193505050501580156107bc573d6000803e3d6000fd5b600e805460408051602060026001851615610100026000190190941693909304601f81018490048402820184019092528181529291830182828015610b9a5780601f10610b6f57610100808354040283529160200191610b9a565b820191906000526020600020905b815481529060010190602001808311610b7d57829003601f168201915b505050505081565b600a6020526000908152604090205460ff1681565b6008546001600160a01b031681565b600454600090610100900460ff16158015610be4575060045460ff16155b610bed57600080fd5b6000546001600160a01b0316331480610c1057506001546001600160a01b031633145b610c1957600080fd5b506000600555600190565b600c5460ff1681565b600d546000908152600b6020526040812054600c54610100900460ff1615610c5457600080fd5b600c5460ff16610c6357600080fd5b6000546001600160a01b03163314610c7a57600080fd5b600d54610c8657600080fd5b600d5460009081526009602052604090205460ff16610ca457600080fd5b600d80546000908152600a60209081526040808320805460ff1916600117905583548352600b90915281205560035490541015610ce957600d80546001019055610cfe565b600c805461ffff19166101001790556000600d555b6001546040516001600160a01b039091169082156108fc029083906000818181858888f19350505050158015610d38573d6000803e3d6000fd5b50600191505090565b60025481565b6001546001600160a01b031681565b600b6020526000908152604090205481565b303190565b600080546001600160a01b03163314610d8557600080fd5b6002543414610d9357600080fd5b600c5460ff1615610da357600080fd5b600c54610100900460ff1615610db857600080fd5b50600c805460ff1916600190811790915590565b600554600090156105bb5742600654600554010390506105e8565b6007546001600160a01b03168156fea265627a7a723058208c2606baf6a7523affd6dd74a80049029e1cd66803e3c41721dfd1cb1180562f64736f6c63430005090032",
  "source": "pragma solidity ^0.5.1;\n\n// Add events!!!\n// modify for DAI, USTC, USDT, etc\n// check forceDissolve() reentrancy vulnerability\n// consider adding \"approve+dissolve\" function for payer wanting to allow one last payment\n// and immediately dissolve after\n\n\ncontract ProgPayETH {\n\n    //payer is purchasing a service from payee\n\n    address payable public payer;\n    address payable public payee;\n\n    //total value of the service contract spread over number of payments\n    uint256 public contractValueInWei;\n    uint256 public numberOfPayments;\n\n    //parties signal desire to dissolve\n    bool public payerWantsOut;\n    bool public payeeWantsOut;\n\n    //when only one party wants to dissolve start time set by forceDissolve() and delay (in seconds) set by constructor\n    uint256 public forceDissolveStartTime;\n    uint256 public forceDissolveDelay;\n\n    //second option to dissolve by providing a mediator who will mediate fund distribution outside of contract. parties signal\n    //their choice using setMediatorAddress() and they must match in order to enable dissolution\n    //address payable public payerMediatorAddress=0x0000000000000000000000000000000000000000;\n    //address payable public payeeMediatorAddress=0x0000000000000000000000000000000000000001;\n    address payable public payerMediatorAddress;\n    address payable public payeeMediatorAddress;\n\n    //has a payment number been requested?\n    mapping(uint256 => bool) public paymentNumberToRequested;\n\n    //has a payment number been approved? payment triggered automatically upon approval.\n    mapping(uint256 => bool) public paymentNumberToApproved;\n\n    //value of each payment (last payment might be larger based on quotient result)\n    mapping(uint256 => uint256) public paymentNumberToValue;\n\n    bool public contractFunded;\n    bool public contractTerminated;\n    uint256 public nextPayment;\n\n    string public contractName = \"Progress Payments ETH\";\n\n    uint quotient;\n\n\n    constructor(address payable _payer, address payable _payee, uint256 _contractValueInWei, uint256 _numberOfPayments, uint256 _forceDissolveDelay) public {\n        payer = _payer;\n        payee = _payee;\n        contractValueInWei = _contractValueInWei;\n        numberOfPayments = _numberOfPayments;\n\n        //set first payment\n        nextPayment=1;\n\n        //preset dissolution variables here\n        payeeWantsOut = false;\n        payerWantsOut = false;\n        forceDissolveStartTime = 0;\n        forceDissolveDelay = _forceDissolveDelay;\n\n        quotient = contractValueInWei/numberOfPayments;\n\n        for (uint256 i=1;i<numberOfPayments+1;i++){\n            paymentNumberToRequested[i]=false;\n            paymentNumberToApproved[i]=false;\n\n            paymentNumberToValue[i]=quotient;\n\n        }\n        paymentNumberToValue[numberOfPayments]+=contractValueInWei-quotient*numberOfPayments;\n    }\n\n    //payer desosits contract value here, triggering beginning of contract payment process. requires deposit amount to match contract value exactly\n    function initialDeposit() public payable returns(bool) {\n        require(msg.sender==payer);\n        require(msg.value==contractValueInWei);\n        require(!contractFunded);\n        require(!contractTerminated);\n        contractFunded = true;\n        return true;\n    }\n\n    //payee can request a payment only after contract is funded and not after all payments have been completed.\n    function requestPayment() public returns(bool){\n        require(!payeeWantsOut);\n        require(!contractTerminated);\n        require(contractFunded);\n        require(msg.sender==payee);\n        require(paymentNumberToRequested[nextPayment]==false);\n        require(nextPayment != 0);\n        paymentNumberToRequested[nextPayment]=true;\n        return true;\n    }\n\n    //payer approves payment and initiates transaciton in the same transaction. payment must be requested by payee and contract must be funded.\n    //payee received funds upon aproval\n    function approvePayment() public returns(bool){\n        uint256 amountToSend = paymentNumberToValue[nextPayment];\n        require(!contractTerminated);\n        require(contractFunded);\n        require(msg.sender==payer);\n        require(nextPayment != 0);\n        require(paymentNumberToRequested[nextPayment]);\n        paymentNumberToApproved[nextPayment]=true;\n        paymentNumberToValue[nextPayment]=0;\n        if(nextPayment<numberOfPayments){\n            nextPayment++;\n        } else {\n            contractFunded=false;\n            contractTerminated=true;\n            nextPayment=0;\n        }\n        payee.transfer(amountToSend);\n        return true;\n    }\n\n\n    //if both payer and payee are in agreement to dissolve return balance of contract to payer when no payment is requested, send last payment to payee and remainder\n    //payer if nextPayment is requested but not approve.\n    function dissolve() public payable returns(bool){\n        require(!contractTerminated);\n        require(payeeWantsOut && payerWantsOut);\n        require(msg.sender==payer || msg.sender==payee);\n        require(forceDissolveStartTime==0);\n        if (paymentNumberToRequested[nextPayment]){\n            uint256 contractBalanceRemaining = address(this).balance;\n            uint256 finalPayment = paymentNumberToValue[nextPayment];\n            uint256 balanceReturnToPayer = contractBalanceRemaining - finalPayment;\n            contractFunded=false;\n            contractTerminated=true;\n            nextPayment=0;\n            paymentNumberToValue[nextPayment]=0;\n            payee.transfer(finalPayment);\n            payer.transfer(balanceReturnToPayer);\n        } else {\n            contractFunded=false;\n            contractTerminated=true;\n            nextPayment=0;\n            payer.transfer(address(this).balance);\n        }\n        \n        return true;\n    }\n\n    //if only one party wants to dissolve can force a timer (in seconds, set at deployment) after which the contract can\n    //be dissolved without both parties agreement where nextPayment is split between both parties --or-- both payer and payee\n    //can signal for an agreed upon mediator to receive the funds who would then distribute them per a mediation agreement\n    //outside of this contract.\n    function forceDissolve() public payable returns(bool){\n        require(!contractTerminated);\n        //require(payeeWantsOut || payerWantsOut);\n        if(paymentNumberToRequested[nextPayment]){\n            require(msg.sender==payer || (msg.sender==payer && payerMediatorAddress != address(0) && payeeMediatorAddress != address(0) && payerMediatorAddress == payeeMediatorAddress));\n        }else {\n            require(msg.sender==payer || msg.sender==payee);\n        }\n        if (payerMediatorAddress != address(0) && payeeMediatorAddress != address(0) && payerMediatorAddress == payeeMediatorAddress){\n            contractFunded=false;\n            contractTerminated=true;\n            nextPayment=0;\n            payerMediatorAddress.transfer(address(this).balance);\n        } else {\n            if (forceDissolveStartTime == 0){\n              forceDissolveStartTime = now;\n            } else if (now > forceDissolveStartTime + forceDissolveDelay){\n                uint256 contractBalanceRemaining = address(this).balance;\n                uint256 splitLastPayment = paymentNumberToValue[nextPayment]/2;\n                uint256 balanceReturnToPayer = contractBalanceRemaining-splitLastPayment;\n                paymentNumberToValue[nextPayment]=0;\n                nextPayment=0;\n                contractFunded=false;\n                contractTerminated=true;\n                payee.transfer(splitLastPayment);\n                payer.transfer(balanceReturnToPayer);\n            } else {\n            return false;\n            }\n        }\n\n        return true;\n    }\n\n     //allows each party to signal their interest to dissolve contract. contract must be funded. payee can not signal to dissolve if nextPayment is requested\n     function toggleAgreeToDissolve() public returns(bool){\n        require(!contractTerminated);\n        require(msg.sender==payer || msg.sender==payee);\n        require(contractFunded);\n        require(nextPayment != 0);\n        if (msg.sender==payer){\n            payerWantsOut = !payerWantsOut;\n        } else {\n            if (paymentNumberToRequested[nextPayment]==true){\n                if(payerWantsOut){\n                    payeeWantsOut = !payeeWantsOut;\n                } else {\n                    return false;\n                }\n            } else {\n                payeeWantsOut = !payeeWantsOut;\n            }\n        }\n        return true;\n    }\n\n    //if payer and payee find common ground and choose to continue with initial contract can reset the forceDissolve() timer\n    //and keep going with initial agreement\n    function resetForceDissolve() public returns(bool){\n        require(!payeeWantsOut && !payerWantsOut);\n        require(msg.sender==payer || msg.sender==payee);\n        forceDissolveStartTime = 0;\n        return true;\n    }\n\n    //payer and payee can confirm agreement to mediation by providing the same mediator address\n    function setMediatorAddress(address payable _mediatorAddress) public returns(bool){\n        require(!contractTerminated);\n        require(msg.sender==payer || msg.sender==payee);\n        if (msg.sender==payer){\n            payerMediatorAddress = _mediatorAddress;\n        } else {\n            payeeMediatorAddress = _mediatorAddress;\n        }\n        return true;\n    }\n\n    //returns time remaining until forceDissolve() will split nextPayment and destroy contract\n    function timeRemaining() public view returns(uint256){\n        if (forceDissolveStartTime > 0){\n        return forceDissolveStartTime + forceDissolveDelay - now;\n        } else {\n            return 0;\n        }\n    }\n\n    //returns remaining balance, used while testing in JavaScript VM mode can be removed for mainnet as contract\n    //balance appears on Etherscan\n    function remainingBalance() public view returns(uint256){\n        return address(this).balance;\n    }\n\n\n\n}\n\n\n//    \"0xa0759e5069bd17919ed7426bc3D246b610D7362e\",\"0xc28DAFE415B15465BFbEEaE8D203843Bf5D61DF5\",\"12500000000000000000\",\"6\",\"3000\"\n",
  "sourcePath": "/Users/erick/eth/progpay/contracts/ProgPayETH.sol",
  "compiler": {
    "name": "solc",
    "version": "0.5.9+commit.e560f70d.Emscripten.clang"
  },
  "schemaVersion": "3.0.23",
  "updatedAt": "2020-03-30T20:55:09.851Z",
  "networkType": "ethereum",
  "devdoc": {
    "methods": {}
  },
  "userdoc": {
    "methods": {}
  }
}