{
  "contractName": "ProgPayDAI",
  "abi": [
    {
      "constant": true,
      "inputs": [],
      "name": "forceDissolveStartTime",
      "outputs": [
        {
          "name": "",
          "type": "uint256"
        }
      ],
      "payable": false,
      "stateMutability": "view",
      "type": "function"
    },
    {
      "constant": true,
      "inputs": [],
      "name": "payer",
      "outputs": [
        {
          "name": "",
          "type": "address"
        }
      ],
      "payable": false,
      "stateMutability": "view",
      "type": "function"
    },
    {
      "constant": true,
      "inputs": [],
      "name": "contractTerminated",
      "outputs": [
        {
          "name": "",
          "type": "bool"
        }
      ],
      "payable": false,
      "stateMutability": "view",
      "type": "function"
    },
    {
      "constant": true,
      "inputs": [],
      "name": "payerWantsOut",
      "outputs": [
        {
          "name": "",
          "type": "bool"
        }
      ],
      "payable": false,
      "stateMutability": "view",
      "type": "function"
    },
    {
      "constant": true,
      "inputs": [],
      "name": "daiContract",
      "outputs": [
        {
          "name": "",
          "type": "address"
        }
      ],
      "payable": false,
      "stateMutability": "view",
      "type": "function"
    },
    {
      "constant": true,
      "inputs": [],
      "name": "nextPayment",
      "outputs": [
        {
          "name": "",
          "type": "uint256"
        }
      ],
      "payable": false,
      "stateMutability": "view",
      "type": "function"
    },
    {
      "constant": true,
      "inputs": [],
      "name": "payeeWantsOut",
      "outputs": [
        {
          "name": "",
          "type": "bool"
        }
      ],
      "payable": false,
      "stateMutability": "view",
      "type": "function"
    },
    {
      "constant": true,
      "inputs": [],
      "name": "numberOfPayments",
      "outputs": [
        {
          "name": "",
          "type": "uint256"
        }
      ],
      "payable": false,
      "stateMutability": "view",
      "type": "function"
    },
    {
      "constant": true,
      "inputs": [],
      "name": "forceDissolveDelay",
      "outputs": [
        {
          "name": "",
          "type": "uint256"
        }
      ],
      "payable": false,
      "stateMutability": "view",
      "type": "function"
    },
    {
      "constant": true,
      "inputs": [
        {
          "name": "",
          "type": "uint256"
        }
      ],
      "name": "paymentNumberToRequested",
      "outputs": [
        {
          "name": "",
          "type": "bool"
        }
      ],
      "payable": false,
      "stateMutability": "view",
      "type": "function"
    },
    {
      "constant": true,
      "inputs": [],
      "name": "contractName",
      "outputs": [
        {
          "name": "",
          "type": "string"
        }
      ],
      "payable": false,
      "stateMutability": "view",
      "type": "function"
    },
    {
      "constant": true,
      "inputs": [
        {
          "name": "",
          "type": "uint256"
        }
      ],
      "name": "paymentNumberToApproved",
      "outputs": [
        {
          "name": "",
          "type": "bool"
        }
      ],
      "payable": false,
      "stateMutability": "view",
      "type": "function"
    },
    {
      "constant": true,
      "inputs": [],
      "name": "payeeMediatorAddress",
      "outputs": [
        {
          "name": "",
          "type": "address"
        }
      ],
      "payable": false,
      "stateMutability": "view",
      "type": "function"
    },
    {
      "constant": true,
      "inputs": [],
      "name": "contractFunded",
      "outputs": [
        {
          "name": "",
          "type": "bool"
        }
      ],
      "payable": false,
      "stateMutability": "view",
      "type": "function"
    },
    {
      "constant": true,
      "inputs": [],
      "name": "contractValueInWei",
      "outputs": [
        {
          "name": "",
          "type": "uint256"
        }
      ],
      "payable": false,
      "stateMutability": "view",
      "type": "function"
    },
    {
      "constant": true,
      "inputs": [],
      "name": "payee",
      "outputs": [
        {
          "name": "",
          "type": "address"
        }
      ],
      "payable": false,
      "stateMutability": "view",
      "type": "function"
    },
    {
      "constant": true,
      "inputs": [
        {
          "name": "",
          "type": "uint256"
        }
      ],
      "name": "paymentNumberToValue",
      "outputs": [
        {
          "name": "",
          "type": "uint256"
        }
      ],
      "payable": false,
      "stateMutability": "view",
      "type": "function"
    },
    {
      "constant": true,
      "inputs": [],
      "name": "payerMediatorAddress",
      "outputs": [
        {
          "name": "",
          "type": "address"
        }
      ],
      "payable": false,
      "stateMutability": "view",
      "type": "function"
    },
    {
      "inputs": [
        {
          "name": "_payer",
          "type": "address"
        },
        {
          "name": "_payee",
          "type": "address"
        },
        {
          "name": "_contractValueInWei",
          "type": "uint256"
        },
        {
          "name": "_numberOfPayments",
          "type": "uint256"
        },
        {
          "name": "_forceDissolveDelay",
          "type": "uint256"
        },
        {
          "name": "_DAIContract",
          "type": "address"
        }
      ],
      "payable": false,
      "stateMutability": "nonpayable",
      "type": "constructor"
    },
    {
      "constant": false,
      "inputs": [],
      "name": "initialDeposit",
      "outputs": [
        {
          "name": "",
          "type": "bool"
        }
      ],
      "payable": true,
      "stateMutability": "payable",
      "type": "function"
    },
    {
      "constant": false,
      "inputs": [],
      "name": "requestPayment",
      "outputs": [
        {
          "name": "",
          "type": "bool"
        }
      ],
      "payable": false,
      "stateMutability": "nonpayable",
      "type": "function"
    },
    {
      "constant": false,
      "inputs": [],
      "name": "approvePayment",
      "outputs": [
        {
          "name": "",
          "type": "bool"
        }
      ],
      "payable": false,
      "stateMutability": "nonpayable",
      "type": "function"
    },
    {
      "constant": false,
      "inputs": [],
      "name": "dissolve",
      "outputs": [
        {
          "name": "",
          "type": "bool"
        }
      ],
      "payable": true,
      "stateMutability": "payable",
      "type": "function"
    },
    {
      "constant": false,
      "inputs": [],
      "name": "forceDissolve",
      "outputs": [
        {
          "name": "",
          "type": "bool"
        }
      ],
      "payable": true,
      "stateMutability": "payable",
      "type": "function"
    },
    {
      "constant": false,
      "inputs": [],
      "name": "toggleAgreeToDissolve",
      "outputs": [
        {
          "name": "",
          "type": "bool"
        }
      ],
      "payable": false,
      "stateMutability": "nonpayable",
      "type": "function"
    },
    {
      "constant": false,
      "inputs": [],
      "name": "resetForceDissolve",
      "outputs": [
        {
          "name": "",
          "type": "bool"
        }
      ],
      "payable": false,
      "stateMutability": "nonpayable",
      "type": "function"
    },
    {
      "constant": false,
      "inputs": [
        {
          "name": "_mediatorAddress",
          "type": "address"
        }
      ],
      "name": "setMediatorAddress",
      "outputs": [
        {
          "name": "",
          "type": "bool"
        }
      ],
      "payable": false,
      "stateMutability": "nonpayable",
      "type": "function"
    },
    {
      "constant": true,
      "inputs": [],
      "name": "timeRemaining",
      "outputs": [
        {
          "name": "",
          "type": "uint256"
        }
      ],
      "payable": false,
      "stateMutability": "view",
      "type": "function"
    },
    {
      "constant": true,
      "inputs": [],
      "name": "remainingBalance",
      "outputs": [
        {
          "name": "",
          "type": "uint256"
        }
      ],
      "payable": false,
      "stateMutability": "view",
      "type": "function"
    },
    {
      "constant": true,
      "inputs": [],
      "name": "approvedToTransfer",
      "outputs": [
        {
          "name": "",
          "type": "bool"
        }
      ],
      "payable": false,
      "stateMutability": "view",
      "type": "function"
    }
  ],
  "bytecode": "0x60c0604052600d60808190527f446563656e74506179204441490000000000000000000000000000000000000060a09081526200004091600f919062000184565b503480156200004e57600080fd5b5060405162001b1738038062001b17833981810160405260c08110156200007457600080fd5b508051602082015160408301516060840151608085015160a090950151600080546001600160a01b038084166001600160a01b031992831617835560018054828a1690841617815560028054928916929093169190911790915560038590556004849055600e556005805461ffff19169055600655600786905593949293919290918284816200010057fe5b0460105560015b60045460010181101562000154576000818152600a60209081526040808320805460ff19908116909155600b835281842080549091169055601054600c9092529091205560010162000107565b50506004546010546003546000838152600c60205260409020805492909302900301905550620002299350505050565b828054600181600116156101000203166002900490600052602060002090601f016020900481019282601f10620001c757805160ff1916838001178555620001f7565b82800160010185558215620001f7579182015b82811115620001f7578251825591602001919060010190620001da565b506200020592915062000209565b5090565b6200022691905b8082111562000205576000815560010162000210565b90565b6118de80620002396000396000f3fe6080604052600436106101c25760003560e01c806363bdb94b116100f757806396fd340911610095578063da25de3c11610064578063da25de3c146104ce578063e037f889146104e3578063e3cfef60146104eb578063f8158ad214610500576101c2565b806396fd340914610465578063a41e56001461047a578063ae90b2131461048f578063b812be27146104a4576101c2565b806376d5c715116100d157806376d5c715146103fc5780637b5b4b8914610426578063907a08701461043b578063945aef2314610450576101c2565b806363bdb94b14610355578063728b32bb1461036a57806375d0c0dc14610372576101c2565b80632d378026116101645780633bef8a3a1161013e5780633bef8a3a146102f9578063422f963c146103015780634b4e6fd914610316578063556ff3fa1461032b576101c2565b80632d3780261461029c5780633042c995146102b157806332c07120146102e4576101c2565b80631e1f916a116101a05780631e1f916a1461024857806325d056d31461025d578063294dacec146102725780632ce8b91314610287576101c2565b806304c2816c146101c7578063123119cd146101ee5780631a2c2a2b1461021f575b600080fd5b3480156101d357600080fd5b506101dc610515565b60408051918252519081900360200190f35b3480156101fa57600080fd5b5061020361051b565b604080516001600160a01b039092168252519081900360200190f35b34801561022b57600080fd5b5061023461052a565b604080519115158252519081900360200190f35b34801561025457600080fd5b50610234610538565b34801561026957600080fd5b5061023461063b565b34801561027e57600080fd5b50610234610644565b34801561029357600080fd5b50610203610762565b3480156102a857600080fd5b506101dc610771565b3480156102bd57600080fd5b50610234600480360360208110156102d457600080fd5b50356001600160a01b0316610777565b3480156102f057600080fd5b50610234610812565b610234610820565b34801561030d57600080fd5b506101dc610ba8565b34801561032257600080fd5b506101dc610bae565b34801561033757600080fd5b506102346004803603602081101561034e57600080fd5b5035610bb4565b34801561036157600080fd5b50610234610bc9565b610234610d3c565b34801561037e57600080fd5b50610387611099565b6040805160208082528351818301528351919283929083019185019080838360005b838110156103c15781810151838201526020016103a9565b50505050905090810190601f1680156103ee5780820380516001836020036101000a031916815260200191505b509250505060405180910390f35b34801561040857600080fd5b506102346004803603602081101561041f57600080fd5b5035611127565b34801561043257600080fd5b5061020361113c565b34801561044757600080fd5b5061023461114b565b34801561045c57600080fd5b506102346111a9565b34801561047157600080fd5b506102346111b2565b34801561048657600080fd5b506101dc611429565b34801561049b57600080fd5b5061020361142f565b3480156104b057600080fd5b506101dc600480360360208110156104c757600080fd5b503561143e565b3480156104da57600080fd5b506101dc611450565b6102346114cd565b3480156104f757600080fd5b506101dc6117e6565b34801561050c57600080fd5b50610203611801565b60065481565b6001546001600160a01b031681565b600d54610100900460ff1681565b600d54600090610100900460ff161561055057600080fd5b6001546001600160a01b031633148061057357506002546001600160a01b031633145b61057c57600080fd5b600d5460ff1661058b57600080fd5b600e5461059757600080fd5b6001546001600160a01b03163314156105c1576005805460ff19811660ff90911615179055610634565b600e546000908152600a602052604090205460ff161515600114156106185760055460ff161561060b576005805461ff001981166101009182900460ff1615909102179055610613565b506000610638565b610634565b6005805461ff001981166101009182900460ff16159091021790555b5060015b90565b60055460ff1681565b6003546000805460015460408051636eb1769f60e11b81526001600160a01b0392831660048201523060248201529051939485949093929092169163dd62ed3e91604480820192602092909190829003018186803b1580156106a557600080fd5b505afa1580156106b9573d6000803e3d6000fd5b505050506040513d60208110156106cf57600080fd5b50511080159061075c5750600354600054600154604080516370a0823160e01b81526001600160a01b039283166004820152905191909216916370a08231916024808301926020929190829003018186803b15801561072d57600080fd5b505afa158015610741573d6000803e3d6000fd5b505050506040513d602081101561075757600080fd5b505110155b91505090565b6000546001600160a01b031681565b600e5481565b600d54600090610100900460ff161561078f57600080fd5b6001546001600160a01b03163314806107b257506002546001600160a01b031633145b6107bb57600080fd5b6001546001600160a01b03163314156107ee57600880546001600160a01b0319166001600160a01b03841617905561080a565b600980546001600160a01b0319166001600160a01b0384161790555b506001919050565b600554610100900460ff1681565b600d54600090610100900460ff161561083857600080fd5b600554610100900460ff168015610851575060055460ff165b61085a57600080fd5b6001546001600160a01b031633148061087d57506002546001600160a01b031633145b61088657600080fd5b6006541561089357600080fd5b600e546000908152600a602052604090205460ff1615610a8f5760008054604080516370a0823160e01b815230600482015290516001600160a01b03909216916370a0823191602480820192602092909190829003018186803b1580156108f957600080fd5b505afa15801561090d573d6000803e3d6000fd5b505050506040513d602081101561092357600080fd5b5051600e80546000908152600c6020908152604080832054600d805461ffff1916610100179055938390558280527f13649b2456f1b42fef0f0040b3aaeabcd21a76a0f3f5defd4f583839455116e88390558254600254825163a9059cbb60e01b81526001600160a01b0391821660048201526024810187905292519697509495868803959091169363a9059cbb93604480850194919392918390030190829087803b1580156109d257600080fd5b505af11580156109e6573d6000803e3d6000fd5b505050506040513d60208110156109fc57600080fd5b5050600080546001546040805163a9059cbb60e01b81526001600160a01b039283166004820152602481018690529051919092169263a9059cbb92604480820193602093909283900390910190829087803b158015610a5a57600080fd5b505af1158015610a6e573d6000803e3d6000fd5b505050506040513d6020811015610a8457600080fd5b506106349350505050565b600d805461ffff19166101001790556000600e81905554600154604080516370a0823160e01b815230600482015290516001600160a01b039384169363a9059cbb93169184916370a0823191602480820192602092909190829003018186803b158015610afb57600080fd5b505afa158015610b0f573d6000803e3d6000fd5b505050506040513d6020811015610b2557600080fd5b5051604080516001600160e01b031960e086901b1681526001600160a01b03909316600484015260248301919091525160448083019260209291908290030181600087803b158015610b7657600080fd5b505af1158015610b8a573d6000803e3d6000fd5b505050506040513d6020811015610ba057600080fd5b505050600190565b60045481565b60075481565b600a6020526000908152604090205460ff1681565b600554600090610100900460ff1615610c29576040805162461bcd60e51b815260206004820181905260248201527f5061796565206d757374206e6f7420666c616720746f20646973736f6c76652e604482015290519081900360640190fd5b600d54610100900460ff1615610c86576040805162461bcd60e51b815260206004820152601860248201527f436f6e7472616374206d757374206265206163746976652e0000000000000000604482015290519081900360640190fd5b600d5460ff16610cd7576040805162461bcd60e51b815260206004820152601760248201527610dbdb9d1c9858dd081b5d5cdd08189948199d5b991959604a1b604482015290519081900360640190fd5b6002546001600160a01b03163314610cee57600080fd5b600e546000908152600a602052604090205460ff1615610d0d57600080fd5b600e54610d1957600080fd5b50600e546000908152600a60205260409020805460ff1916600190811790915590565b600d54600090610100900460ff1615610d5457600080fd5b600e546000908152600a602052604090205460ff1615610de6576001546001600160a01b0316331480610dd857506002546001600160a01b031633148015610da657506008546001600160a01b031615155b8015610dbc57506009546001600160a01b031615155b8015610dd857506009546008546001600160a01b039081169116145b610de157600080fd5b610e12565b6001546001600160a01b0316331480610e0957506002546001600160a01b031633145b610e1257600080fd5b6008546001600160a01b031615801590610e3657506009546001600160a01b031615155b8015610e5257506009546008546001600160a01b039081169116145b15610f735760008054604080516370a0823160e01b815230600482015290516001600160a01b03909216916370a0823191602480820192602092909190829003018186803b158015610ea357600080fd5b505afa158015610eb7573d6000803e3d6000fd5b505050506040513d6020811015610ecd57600080fd5b5051600d805461ffff19166101001790556000600e81905580546008546040805163a9059cbb60e01b81526001600160a01b03928316600482015260248101869052905194955091169263a9059cbb92604480840193602093929083900390910190829087803b158015610f4057600080fd5b505af1158015610f54573d6000803e3d6000fd5b505050506040513d6020811015610f6a57600080fd5b50610634915050565b600654610f835742600655610634565b6007546006540142111561060b5760008054604080516370a0823160e01b815230600482015290516001600160a01b03909216916370a0823191602480820192602092909190829003018186803b158015610fdd57600080fd5b505afa158015610ff1573d6000803e3d6000fd5b505050506040513d602081101561100757600080fd5b5051600e80546000908152600c6020908152604080832080549084905593839055600d805461ffff1916610100179055825460028054835163a9059cbb60e01b81526001600160a01b039182166004820152919096046024820181905292519697509195868803959091169363a9059cbb93604480850194919392918390030190829087803b1580156109d257600080fd5b600f805460408051602060026001851615610100026000190190941693909304601f8101849004840282018401909252818152929183018282801561111f5780601f106110f45761010080835404028352916020019161111f565b820191906000526020600020905b81548152906001019060200180831161110257829003601f168201915b505050505081565b600b6020526000908152604090205460ff1681565b6009546001600160a01b031681565b600554600090610100900460ff16158015611169575060055460ff16155b61117257600080fd5b6001546001600160a01b031633148061119557506002546001600160a01b031633145b61119e57600080fd5b506000600655600190565b600d5460ff1681565b600e546000908152600c6020526040812054600d54610100900460ff1615611221576040805162461bcd60e51b815260206004820152601760248201527f436f6e7472616374206d75737420626520616374697665000000000000000000604482015290519081900360640190fd5b600d5460ff16611272576040805162461bcd60e51b815260206004820152601760248201527610dbdb9d1c9858dd081b5d5cdd08189948199d5b991959604a1b604482015290519081900360640190fd5b6001546001600160a01b031633146112d1576040805162461bcd60e51b815260206004820152601e60248201527f4f6e6c792070617965722063616e20617070726f7665207061796d656e740000604482015290519081900360640190fd5b600e546112dd57600080fd5b600e546000908152600a602052604090205460ff16611343576040805162461bcd60e51b815260206004820152601f60248201527f5061796d656e74206d7573742062652072657175657374656420666972737400604482015290519081900360640190fd5b600e80546000908152600b60209081526040808320805460ff1916600117905583548352600c9091528120556004549054101561138857600e8054600101905561139d565b600d805461ffff19166101001790556000600e555b600080546002546040805163a9059cbb60e01b81526001600160a01b039283166004820152602481018690529051919092169163a9059cbb91604480830192602092919082900301818787803b1580156113f657600080fd5b505af115801561140a573d6000803e3d6000fd5b505050506040513d602081101561142057600080fd5b50519250505090565b60035481565b6002546001600160a01b031681565b600c6020526000908152604090205481565b60008054604080516370a0823160e01b815230600482015290516001600160a01b03909216916370a0823191602480820192602092909190829003018186803b15801561149c57600080fd5b505afa1580156114b0573d6000803e3d6000fd5b505050506040513d60208110156114c657600080fd5b5051905090565b6001546000906001600160a01b03163314611523576040805162461bcd60e51b81526020600482015260116024820152703cb7ba9036bab9ba103132903830bcb2b960791b604482015290519081900360640190fd5b600354600054600154604080516370a0823160e01b81526001600160a01b039283166004820152905191909216916370a08231916024808301926020929190829003018186803b15801561157657600080fd5b505afa15801561158a573d6000803e3d6000fd5b505050506040513d60208110156115a057600080fd5b505110156115df5760405162461bcd60e51b81526004018080602001828103825260418152602001806118696041913960600191505060405180910390fd5b60035460005460015460408051636eb1769f60e11b81526001600160a01b0392831660048201523060248201529051919092169163dd62ed3e916044808301926020929190829003018186803b15801561163857600080fd5b505afa15801561164c573d6000803e3d6000fd5b505050506040513d602081101561166257600080fd5b505110156116a15760405162461bcd60e51b815260040180806020018281038252602c815260200180611811602c913960400191505060405180910390fd5b600d5460ff16156116e35760405162461bcd60e51b815260040180806020018281038252602c81526020018061183d602c913960400191505060405180910390fd5b600d54610100900460ff1615611740576040805162461bcd60e51b815260206004820152601760248201527f636f6e7472616374206d75737420626520616374697665000000000000000000604482015290519081900360640190fd5b60008054600154600354604080516323b872dd60e01b81526001600160a01b03938416600482015230602482015260448101929092525191909216926323b872dd92606480820193602093909283900390910190829087803b1580156117a557600080fd5b505af11580156117b9573d6000803e3d6000fd5b505050506040513d60208110156117cf57600080fd5b5050600d805460ff19166001908117909155905090565b6006546000901561060b574260075460065401039050610638565b6008546001600160a01b03168156fe616c6c6f77616e6365206d75737420626520686967686572207468616e20636f6e74726163742076616c7565636f6e74616374206d757374206e6f742068617665206265656e2070726576696f75736c792066756e6465647061796572206d75737420686176652073756666696369656e742044414920696e206163636f756e7420746f20636f76657220636f6e74726163742076616c7565a265627a7a723058200e703a93cb18ebbe82ad3b27e2cbe194ec8f223e0908c05ff809019388d4101664736f6c63430005090032",
  "source": "pragma solidity ^0.5.9;\n\ninterface DAITokenInterface {\n    function balanceOf(address owner) external view returns(uint256 balance);\n    function allowance(address owner, address spender) external view returns(uint256 spendingAllowance);\n    function transferFrom(address _from, address _to, uint256 _amount) external returns(bool);\n    function transfer(address _to, uint256 _value) external returns(bool);\n}\n\n\npragma solidity ^0.5.9;\n\n// Add events!!!\n// modify for DAI, USTC, USDT, etc\n// check forceDissolve() reentrancy vulnerability\n\n\ncontract ProgPayDAI {\n    \n    DAITokenInterface public daiContract;\n\n    //payer is purchasing a service from payee\n\n    address payable public payer;\n    address payable public payee;\n\n    //total value of the service contract spread over number of payments\n    uint256 public contractValueInWei;\n    uint256 public numberOfPayments;\n\n    //parties signal desire to dissolve\n    bool public payerWantsOut;\n    bool public payeeWantsOut;\n\n    //when only one party wants to dissolve start time set by forceDissolve() and delay (in seconds) set by constructor\n    uint256 public forceDissolveStartTime;\n    uint256 public forceDissolveDelay;\n\n    //second option to dissolve by providing a mediator who will mediate fund distribution outside of contract. parties signal\n    //their choice using setMediatorAddress() and they must match in order to enable dissolution\n    \n    address payable public payerMediatorAddress;\n    address payable public payeeMediatorAddress;\n\n    //has a payment number been requested?\n    mapping(uint256 => bool) public paymentNumberToRequested;\n\n    //has a payment number been approved? payment triggered automatically upon approval.\n    mapping(uint256 => bool) public paymentNumberToApproved;\n\n    //value of each payment (last payment might be larger based on quotient result)\n    mapping(uint256 => uint256) public paymentNumberToValue;\n    \n    bool public contractFunded;\n    bool public contractTerminated;\n    uint256 public nextPayment;\n    \n    string public contractName = \"DecentPay DAI\";\n\n    uint quotient;\n\n\n    constructor(address payable _payer, address payable _payee, uint256 _contractValueInWei, uint256 _numberOfPayments, uint256 _forceDissolveDelay, address _DAIContract) public {\n        \n        daiContract = DAITokenInterface(_DAIContract);\n        \n        payer = _payer;\n        payee = _payee;\n        contractValueInWei = _contractValueInWei;\n        numberOfPayments = _numberOfPayments;\n\n        //set first payment\n        nextPayment=1;\n\n        //preset dissolution variables here\n        payeeWantsOut = false;\n        payerWantsOut = false;\n        forceDissolveStartTime = 0;\n        forceDissolveDelay = _forceDissolveDelay;\n\n        quotient = contractValueInWei/numberOfPayments;\n\n        for (uint256 i=1;i<numberOfPayments+1;i++){\n            paymentNumberToRequested[i]=false;\n            paymentNumberToApproved[i]=false;\n\n            paymentNumberToValue[i]=quotient;\n\n        }\n        paymentNumberToValue[numberOfPayments]+=contractValueInWei-quotient*numberOfPayments;\n    }\n\n    //payer desosits contract value here, triggering beginning of contract payment process. requires deposit amount to match contract value exactly.\n    //must authorize the transfer on the DAI contract first\n    function initialDeposit() public payable returns(bool) {\n        require(msg.sender==payer, \"you must be payer\");\n        require(daiContract.balanceOf(payer)>=contractValueInWei, \"payer must have sufficient DAI in account to cover contract value\");\n        require(daiContract.allowance(payer, address(this))>=contractValueInWei, \"allowance must be higher than contract value\");\n        require(!contractFunded, \"contact must not have been previously funded\");\n        require(!contractTerminated, \"contract must be active\");\n        daiContract.transferFrom(payer, address(this), contractValueInWei);\n        contractFunded = true;\n        return true;\n    }\n\n    //payee can request a payment only after contract is funded and not after all payments have been completed.\n    function requestPayment() public returns(bool){\n        require(!payeeWantsOut, \"Payee must not flag to dissolve.\");\n        require(!contractTerminated, \"Contract must be active.\");\n        require(contractFunded, \"Contract must be funded\");\n        require(msg.sender==payee);\n        require(paymentNumberToRequested[nextPayment]==false);\n        require(nextPayment != 0);\n        paymentNumberToRequested[nextPayment]=true;\n        return true;\n    }\n\n    //payer approves payment and initiates transaciton in the same transaction. payment must be requested by payee and contract must be funded.\n    //payee received funds upon aproval\n    function approvePayment() public returns(bool){\n        uint256 amountToSend = paymentNumberToValue[nextPayment];\n        require(!contractTerminated, \"Contract must be active\");\n        require(contractFunded, \"Contract must be funded\");\n        require(msg.sender==payer, \"Only payer can approve payment\");\n        require(nextPayment != 0);\n        require(paymentNumberToRequested[nextPayment], \"Payment must be requested first\");\n        paymentNumberToApproved[nextPayment]=true;\n        paymentNumberToValue[nextPayment]=0;\n        if(nextPayment<numberOfPayments){\n            nextPayment++;\n        } else {\n            contractFunded=false;\n            contractTerminated=true;\n            nextPayment=0;\n        }\n        bool transferred = daiContract.transfer(payee, amountToSend);\n        return transferred;\n    }\n\n   \n\n    //if both payer and payee are in agreement to dissolve return balance of contract to payer\n    function dissolve() public payable returns(bool){\n        require(!contractTerminated);\n        require(payeeWantsOut && payerWantsOut);\n        require(msg.sender==payer || msg.sender==payee);\n        require(forceDissolveStartTime==0);\n        \n        if (paymentNumberToRequested[nextPayment]){\n            uint256 contractBalanceRemaining = daiContract.balanceOf(address(this));\n            uint256 finalPayment = paymentNumberToValue[nextPayment];\n            uint256 balanceReturnToPayer = contractBalanceRemaining - finalPayment;\n            contractFunded=false;\n            contractTerminated=true;\n            nextPayment=0;\n            paymentNumberToValue[nextPayment]=0;\n            daiContract.transfer(payee, finalPayment);\n            daiContract.transfer(payer, balanceReturnToPayer);\n        } else {\n            contractFunded=false;\n            contractTerminated=true;\n            nextPayment=0;\n            daiContract.transfer(payer, daiContract.balanceOf(address(this)));\n        }\n        \n        return true;\n        \n}\n\n    //if only one party wants to dissolve can force a timer (in seconds, set at deployment) after which the contract can\n    //be dissolved without both parties agreement where nextPayment is split between both parties --or-- both payer and payee\n    //can signal for an agreed upon mediator to receive the funds who would then distribute them per a mediation agreement\n    //outside of this contract.\n    \n    function forceDissolve() public payable returns(bool){\n        require(!contractTerminated);\n        //require(payeeWantsOut || payerWantsOut);\n        if(paymentNumberToRequested[nextPayment]){\n            require(msg.sender==payer || (msg.sender==payee && payerMediatorAddress != address(0) && payeeMediatorAddress != address(0) && payerMediatorAddress == payeeMediatorAddress));\n        }else {\n            require(msg.sender==payer || msg.sender==payee);\n        }\n        \n        if (payerMediatorAddress != address(0) && payeeMediatorAddress != address(0) && payerMediatorAddress == payeeMediatorAddress){\n            uint256 contractBalanceRemaining = daiContract.balanceOf(address(this));\n            contractFunded=false;\n            contractTerminated=true;\n            nextPayment=0;\n            daiContract.transfer(payerMediatorAddress, contractBalanceRemaining);\n        } else {\n            if (forceDissolveStartTime == 0){\n              forceDissolveStartTime = now;\n            } else if (now > forceDissolveStartTime + forceDissolveDelay){\n                uint256 contractBalanceRemaining = daiContract.balanceOf(address(this));\n                uint256 splitLastPayment = paymentNumberToValue[nextPayment]/2;\n                uint256 balanceReturnToPayer = contractBalanceRemaining-splitLastPayment;\n                paymentNumberToValue[nextPayment]=0;\n                nextPayment=0;\n                contractFunded=false;\n                contractTerminated=true;\n                daiContract.transfer(payee, splitLastPayment);\n                daiContract.transfer(payer, balanceReturnToPayer);\n            } else {\n            return false;\n            }\n        }\n\n        return true;\n    }\n    \n    \n     //allows each party to signal their interest to dissolve contract. contract must be funded\n     function toggleAgreeToDissolve() public returns(bool){\n        require(!contractTerminated);\n        require(msg.sender==payer || msg.sender==payee);\n        require(contractFunded);\n        require(nextPayment != 0);\n        if (msg.sender==payer){\n            payerWantsOut = !payerWantsOut;\n        } else {\n            if (paymentNumberToRequested[nextPayment]==true){\n                if(payerWantsOut){\n                    payeeWantsOut = !payeeWantsOut;\n                } else {\n                    return false;\n                }\n            } else {\n                payeeWantsOut = !payeeWantsOut;\n            }\n        }\n        return true;\n    }\n     \n    //if payer and payee find common ground and choose to continue with initial contract can reset the forceDissolve() timer\n    //and keep going with initial agreement\n    function resetForceDissolve() public returns(bool){\n        require(!payeeWantsOut && !payerWantsOut);\n        require(msg.sender==payer || msg.sender==payee);\n        forceDissolveStartTime = 0;\n        return true;\n    }\n\n    //payer and payee can confirm agreement to mediation by providing the same mediator address\n    function setMediatorAddress(address payable _mediatorAddress) public returns(bool){\n        require(!contractTerminated);\n        require(msg.sender==payer || msg.sender==payee);\n        if (msg.sender==payer){\n            payerMediatorAddress = _mediatorAddress;\n        } else {\n            payeeMediatorAddress = _mediatorAddress;\n        }\n        return true;\n    }\n\n    //returns time remaining until forceDissolve() will split nextPayment and destroy contract\n    function timeRemaining() public view returns(uint256){\n        if (forceDissolveStartTime > 0){\n        return forceDissolveStartTime + forceDissolveDelay - now;\n        } else {\n            return 0;\n        }\n    }\n\n    //returns remaining balance, used while testing in JavaScript VM mode can be removed for mainnet as contract\n    //balance appears on Etherscan\n    function remainingBalance() public view returns(uint256){\n        return daiContract.balanceOf(address(this));\n    }\n    \n    //returns true is payer has allowed this contract to transfer the value of this contract worth of DAI on his/her behalf\n    function approvedToTransfer() public view returns(bool){\n        bool approved =  daiContract.allowance(payer, address(this))>=contractValueInWei && daiContract.balanceOf(payer)>=contractValueInWei;\n        return approved;\n    }\n\n\n}\n\n\n//    \"0xf3860788D1597cecF938424bAABe976FaC87dC26\",\"0x5462deE16b3f4D240EBBE52C9C4214c912ccDda4\",\"11000000000000000000\",\"6\",\"300\"\n",
  "sourcePath": "/Users/erick/eth/progpay/contracts/ProgPayDAI.sol",
  "compiler": {
    "name": "solc",
    "version": "0.5.9+commit.e560f70d.Emscripten.clang"
  },
  "schemaVersion": "3.0.23",
  "updatedAt": "2020-04-02T15:30:48.153Z",
  "networkType": "ethereum",
  "devdoc": {
    "methods": {}
  },
  "userdoc": {
    "methods": {}
  }
}