{
  "contractName": "ProgPayETH",
  "abi": [
    {
      "inputs": [
        {
          "internalType": "address payable",
          "name": "_payer",
          "type": "address"
        },
        {
          "internalType": "address payable",
          "name": "_payee",
          "type": "address"
        },
        {
          "internalType": "uint256",
          "name": "_contractValueInWei",
          "type": "uint256"
        },
        {
          "internalType": "uint256",
          "name": "_numberOfPayments",
          "type": "uint256"
        },
        {
          "internalType": "uint256",
          "name": "_forceDissolveDelay",
          "type": "uint256"
        }
      ],
      "stateMutability": "nonpayable",
      "type": "constructor"
    },
    {
      "inputs": [],
      "name": "contractFunded",
      "outputs": [
        {
          "internalType": "bool",
          "name": "",
          "type": "bool"
        }
      ],
      "stateMutability": "view",
      "type": "function",
      "constant": true
    },
    {
      "inputs": [],
      "name": "contractValueInWei",
      "outputs": [
        {
          "internalType": "uint256",
          "name": "",
          "type": "uint256"
        }
      ],
      "stateMutability": "view",
      "type": "function",
      "constant": true
    },
    {
      "inputs": [],
      "name": "forceDissolveDelay",
      "outputs": [
        {
          "internalType": "uint256",
          "name": "",
          "type": "uint256"
        }
      ],
      "stateMutability": "view",
      "type": "function",
      "constant": true
    },
    {
      "inputs": [],
      "name": "forceDissolveStartTime",
      "outputs": [
        {
          "internalType": "uint256",
          "name": "",
          "type": "uint256"
        }
      ],
      "stateMutability": "view",
      "type": "function",
      "constant": true
    },
    {
      "inputs": [],
      "name": "nextPayment",
      "outputs": [
        {
          "internalType": "uint256",
          "name": "",
          "type": "uint256"
        }
      ],
      "stateMutability": "view",
      "type": "function",
      "constant": true
    },
    {
      "inputs": [],
      "name": "numberOfPayments",
      "outputs": [
        {
          "internalType": "uint256",
          "name": "",
          "type": "uint256"
        }
      ],
      "stateMutability": "view",
      "type": "function",
      "constant": true
    },
    {
      "inputs": [],
      "name": "payee",
      "outputs": [
        {
          "internalType": "address payable",
          "name": "",
          "type": "address"
        }
      ],
      "stateMutability": "view",
      "type": "function",
      "constant": true
    },
    {
      "inputs": [],
      "name": "payeeMediatorAddress",
      "outputs": [
        {
          "internalType": "address payable",
          "name": "",
          "type": "address"
        }
      ],
      "stateMutability": "view",
      "type": "function",
      "constant": true
    },
    {
      "inputs": [],
      "name": "payeeWantsOut",
      "outputs": [
        {
          "internalType": "bool",
          "name": "",
          "type": "bool"
        }
      ],
      "stateMutability": "view",
      "type": "function",
      "constant": true
    },
    {
      "inputs": [],
      "name": "payer",
      "outputs": [
        {
          "internalType": "address payable",
          "name": "",
          "type": "address"
        }
      ],
      "stateMutability": "view",
      "type": "function",
      "constant": true
    },
    {
      "inputs": [],
      "name": "payerMediatorAddress",
      "outputs": [
        {
          "internalType": "address payable",
          "name": "",
          "type": "address"
        }
      ],
      "stateMutability": "view",
      "type": "function",
      "constant": true
    },
    {
      "inputs": [],
      "name": "payerWantsOut",
      "outputs": [
        {
          "internalType": "bool",
          "name": "",
          "type": "bool"
        }
      ],
      "stateMutability": "view",
      "type": "function",
      "constant": true
    },
    {
      "inputs": [
        {
          "internalType": "uint256",
          "name": "",
          "type": "uint256"
        }
      ],
      "name": "paymentNumberToApproved",
      "outputs": [
        {
          "internalType": "bool",
          "name": "",
          "type": "bool"
        }
      ],
      "stateMutability": "view",
      "type": "function",
      "constant": true
    },
    {
      "inputs": [
        {
          "internalType": "uint256",
          "name": "",
          "type": "uint256"
        }
      ],
      "name": "paymentNumberToRequested",
      "outputs": [
        {
          "internalType": "bool",
          "name": "",
          "type": "bool"
        }
      ],
      "stateMutability": "view",
      "type": "function",
      "constant": true
    },
    {
      "inputs": [
        {
          "internalType": "uint256",
          "name": "",
          "type": "uint256"
        }
      ],
      "name": "paymentNumberToValue",
      "outputs": [
        {
          "internalType": "uint256",
          "name": "",
          "type": "uint256"
        }
      ],
      "stateMutability": "view",
      "type": "function",
      "constant": true
    },
    {
      "inputs": [],
      "name": "initialDeposit",
      "outputs": [
        {
          "internalType": "bool",
          "name": "",
          "type": "bool"
        }
      ],
      "stateMutability": "payable",
      "type": "function",
      "payable": true
    },
    {
      "inputs": [],
      "name": "requestPayment",
      "outputs": [
        {
          "internalType": "bool",
          "name": "",
          "type": "bool"
        }
      ],
      "stateMutability": "nonpayable",
      "type": "function"
    },
    {
      "inputs": [],
      "name": "approvePayment",
      "outputs": [
        {
          "internalType": "bool",
          "name": "",
          "type": "bool"
        }
      ],
      "stateMutability": "nonpayable",
      "type": "function"
    },
    {
      "inputs": [],
      "name": "toggleAgreeToDissolve",
      "outputs": [
        {
          "internalType": "bool",
          "name": "",
          "type": "bool"
        }
      ],
      "stateMutability": "nonpayable",
      "type": "function"
    },
    {
      "inputs": [],
      "name": "dissolve",
      "outputs": [
        {
          "internalType": "bool",
          "name": "",
          "type": "bool"
        }
      ],
      "stateMutability": "payable",
      "type": "function",
      "payable": true
    },
    {
      "inputs": [],
      "name": "forceDissolve",
      "outputs": [
        {
          "internalType": "bool",
          "name": "",
          "type": "bool"
        }
      ],
      "stateMutability": "payable",
      "type": "function",
      "payable": true
    },
    {
      "inputs": [],
      "name": "resetForceDissolve",
      "outputs": [
        {
          "internalType": "bool",
          "name": "",
          "type": "bool"
        }
      ],
      "stateMutability": "nonpayable",
      "type": "function"
    },
    {
      "inputs": [
        {
          "internalType": "address payable",
          "name": "_mediatorAddress",
          "type": "address"
        }
      ],
      "name": "setMediatorAddress",
      "outputs": [
        {
          "internalType": "bool",
          "name": "",
          "type": "bool"
        }
      ],
      "stateMutability": "nonpayable",
      "type": "function"
    },
    {
      "inputs": [],
      "name": "timeRemaining",
      "outputs": [
        {
          "internalType": "uint256",
          "name": "",
          "type": "uint256"
        }
      ],
      "stateMutability": "view",
      "type": "function",
      "constant": true
    },
    {
      "inputs": [],
      "name": "remainingBalance",
      "outputs": [
        {
          "internalType": "uint256",
          "name": "",
          "type": "uint256"
        }
      ],
      "stateMutability": "view",
      "type": "function",
      "constant": true
    }
  ],
  "bytecode": "0x6080604052600780546001600160a01b031990811690915560088054909116600117905534801561002f57600080fd5b50604051610a4d380380610a4d833981810160405260a081101561005257600080fd5b508051602082015160408301516060840151608090940151600080546001600160a01b038087166001600160a01b0319928316178355600180549187169190921617815560028490556003879055600d556004805461ffff191690556005556006819055929391929091908183816100c657fe5b04600e5560015b600354600101811015610118576000818152600960209081526040808320805460ff19908116909155600a835281842080549091169055600e54600b909252909120556001016100cd565b5050600354600e546002546000838152600b602052604090208054929093029003019055505050506108fe8061014f6000396000f3fe6080604052600436106101665760003560e01c8063728b32bb116100d1578063a41e56001161008a578063da25de3c11610064578063da25de3c146103a9578063e037f889146103be578063e3cfef60146103c6578063f8158ad2146103db57610166565b8063a41e560014610355578063ae90b2131461036a578063b812be271461037f57610166565b8063728b32bb146102cf57806376d5c715146102d75780637b5b4b8914610301578063907a087014610316578063945aef231461032b57806396fd34091461034057610166565b806332c071201161012357806332c07120146102495780633bef8a3a1461025e578063422f963c146102665780634b4e6fd91461027b578063556ff3fa1461029057806363bdb94b146102ba57610166565b806304c2816c1461016b578063123119cd146101925780631e1f916a146101c357806325d056d3146101ec5780632d378026146102015780633042c99514610216575b600080fd5b34801561017757600080fd5b506101806103f0565b60408051918252519081900360200190f35b34801561019e57600080fd5b506101a76103f6565b604080516001600160a01b039092168252519081900360200190f35b3480156101cf57600080fd5b506101d8610405565b604080519115158252519081900360200190f35b3480156101f857600080fd5b506101d861049f565b34801561020d57600080fd5b506101806104a8565b34801561022257600080fd5b506101d86004803603602081101561023957600080fd5b50356001600160a01b03166104ae565b34801561025557600080fd5b506101d8610532565b6101d8610540565b34801561027257600080fd5b5061018061057d565b34801561028757600080fd5b50610180610583565b34801561029c57600080fd5b506101d8600480360360208110156102b357600080fd5b5035610589565b3480156102c657600080fd5b506101d861059e565b6101d86105fb565b3480156102e357600080fd5b506101d8600480360360208110156102fa57600080fd5b50356106d0565b34801561030d57600080fd5b506101a76106e5565b34801561032257600080fd5b506101d86106f4565b34801561033757600080fd5b506101d8610726565b34801561034c57600080fd5b506101d861072f565b34801561036157600080fd5b50610180610829565b34801561037657600080fd5b506101a761082f565b34801561038b57600080fd5b50610180600480360360208110156103a257600080fd5b503561083e565b3480156103b557600080fd5b50610180610850565b6101d8610854565b3480156103d257600080fd5b5061018061089e565b3480156103e757600080fd5b506101a76108b9565b60055481565b6000546001600160a01b031681565b600080546001600160a01b031633148061042957506001546001600160a01b031633145b61043257600080fd5b600c5460ff16151560011461044657600080fd5b600d5461045257600080fd5b6000546001600160a01b031633141561047c576004805460ff19811660ff90911615179055610498565b6004805461ff001981166101009182900460ff16159091021790555b5060015b90565b60045460ff1681565b600d5481565b600080546001600160a01b03163314806104d257506001546001600160a01b031633145b6104db57600080fd5b6000546001600160a01b031633141561050e57600780546001600160a01b0319166001600160a01b03841617905561052a565b600880546001600160a01b0319166001600160a01b0384161790555b506001919050565b600454610100900460ff1681565b600454600090610100900460ff16801561055c575060045460ff165b61056557600080fd5b600c805460ff191690556000546001600160a01b0316ff5b60035481565b60065481565b60096020526000908152604090205460ff1681565b600c5460009060ff1615156001146105b557600080fd5b6001546001600160a01b031633146105cc57600080fd5b600d546105d857600080fd5b50600d546000908152600960205260409020805460ff1916600190811790915590565b600454600090610100900460ff1680610616575060045460ff165b61061f57600080fd5b6008546007546001600160a01b0390811691161415610646576007546001600160a01b0316ff5b6005546106565742600555610498565b600654600554014211156106c857600d546000908152600b602052604080822080549083905560015491516002909104926001600160a01b03909216916108fc841502918491818181858888f193505050501580156106b9573d6000803e3d6000fd5b506000546001600160a01b0316ff5b50600061049c565b600a6020526000908152604090205460ff1681565b6008546001600160a01b031681565b600454600090610100900460ff16158015610712575060045460ff16155b61071b57600080fd5b506000600555600190565b600c5460ff1681565b600d546000908152600b6020526040812054600c5460ff16151560011461075557600080fd5b6000546001600160a01b0316331461076c57600080fd5b600d5461077857600080fd5b600d5460009081526009602052604090205460ff16151560011461079b57600080fd5b600d80546000908152600a60209081526040808320805460ff1916600117905583548352600b909152812055600354905410156107e057600d805460010190556107e6565b6000600d555b6001546040516001600160a01b039091169082156108fc029083906000818181858888f19350505050158015610820573d6000803e3d6000fd5b50600191505090565b60025481565b6001546001600160a01b031681565b600b6020526000908152604090205481565b4790565b600080546001600160a01b0316331461086c57600080fd5b600254341461087a57600080fd5b600c5460ff161561088a57600080fd5b50600c805460ff1916600190811790915590565b600554600090156106c857426006546005540103905061049c565b6007546001600160a01b03168156fea2646970667358221220a152774de05d33c36a113ff96b2f0b807be0fbba72861588c6e9f68d2489611364736f6c63430006010033",
  "source": "pragma solidity ^0.6.1;\n\n// Add events!!!\n// check if != address(0) works to see if address is null\n// modify for DAI, USTC, USDT, etc \n\n\ncontract ProgPayETH {\n    \n    //payer is purchasing a service from payee\n    \n    address payable public payer;\n    address payable public payee;\n    \n    //total value of the service contract spread over number of payments\n    uint256 public contractValueInWei;\n    uint256 public numberOfPayments;\n    \n    //parties signal desire to dissolve\n    bool public payerWantsOut;\n    bool public payeeWantsOut;\n    \n    //when only one party wants to dissolve start time set by forceDissolve() and delay (in seconds) set by constructor\n    uint256 public forceDissolveStartTime;\n    uint256 public forceDissolveDelay;\n    \n    //second option to dissolve by providing a mediator who will mediate fund distribution outside of contract. parties signal\n    //their choice using setMediatorAddress() and they must match in order to enable dissolution\n    address payable public payerMediatorAddress=0x0000000000000000000000000000000000000000;\n    address payable public payeeMediatorAddress=0x0000000000000000000000000000000000000001;\n    \n    //has a payment number been requested?\n    mapping(uint256 => bool) public paymentNumberToRequested;\n    \n    //has a payment number been approved? payment triggered automatically upon approval.\n    mapping(uint256 => bool) public paymentNumberToApproved;\n    \n    //value of each payment (last payment might be larger based on quotient result)\n    mapping(uint256 => uint256) public paymentNumberToValue;\n    \n    bool public contractFunded;\n    uint256 public nextPayment;\n    \n    uint quotient;\n    \n    \n    constructor(address payable _payer, address payable _payee, uint256 _contractValueInWei, uint256 _numberOfPayments, uint256 _forceDissolveDelay) public {\n        payer = _payer;\n        payee = _payee;\n        contractValueInWei = _contractValueInWei;\n        numberOfPayments = _numberOfPayments;\n        \n        //set first payment\n        nextPayment=1;\n        \n        //preset dissolution variables here\n        payeeWantsOut = false;\n        payerWantsOut = false;\n        forceDissolveStartTime = 0;\n        forceDissolveDelay = _forceDissolveDelay;\n        \n        quotient = contractValueInWei/numberOfPayments;\n        \n        for (uint256 i=1;i<numberOfPayments+1;i++){\n            paymentNumberToRequested[i]=false;\n            paymentNumberToApproved[i]=false;\n            \n            paymentNumberToValue[i]=quotient;\n            \n        }\n        paymentNumberToValue[numberOfPayments]+=contractValueInWei-quotient*numberOfPayments;\n    }\n    \n    //payer desosits contract value here, triggering beginning of contract payment process. requires deposit amount to match contract value exactly\n    function initialDeposit() public payable returns(bool) {\n        require(msg.sender==payer);\n        require(msg.value==contractValueInWei);\n        require(contractFunded==false);\n        contractFunded = true;\n        return true;\n    }\n    \n    //payee can request a payment only after contract is funded and not after all payments have been completed.\n    function requestPayment() public returns(bool){\n        require(contractFunded==true);\n        require(msg.sender==payee);\n        require(nextPayment != 0);\n        paymentNumberToRequested[nextPayment]=true;\n        return true;\n    }\n    \n    //payer approves payment and initiates transaciton in the same transaction. payment must be requested by payee and contract must be funded. \n    //payee received funds upon aproval \n    function approvePayment() public returns(bool){\n        uint256 amountToSend = paymentNumberToValue[nextPayment];\n        require(contractFunded==true);\n        require(msg.sender==payer);\n        require(nextPayment != 0);\n        require(paymentNumberToRequested[nextPayment]==true);\n        paymentNumberToApproved[nextPayment]=true;\n        paymentNumberToValue[nextPayment]=0;\n        if(nextPayment<numberOfPayments){\n            nextPayment++;\n        } else {\n            nextPayment=0;\n        }\n        payee.transfer(amountToSend);\n        return true;\n    }\n    \n    //allows each party to signal their interest to dissolve contract. contract must be funded\n     function toggleAgreeToDissolve() public returns(bool){\n        require(msg.sender==payer || msg.sender==payee);\n        require(contractFunded==true);\n        require(nextPayment != 0);\n        if (msg.sender==payer){\n            payerWantsOut = !payerWantsOut;\n        } else {\n            payeeWantsOut = !payeeWantsOut;\n        }\n        return true;\n    }\n    \n    //if both payer and payee are in agreement to dissolve return balance of contract to payer\n    function dissolve() public payable returns(bool){\n        require(payeeWantsOut && payerWantsOut);\n        contractFunded=false;\n        selfdestruct(payer);\n        return true;\n    }\n    \n    //if only one party wants to dissolve can force a timer (in seconds, set at deployment) after which the contract can\n    //be dissolved without both parties agreement where nextPayment is split between both parties --or-- both payer and payee\n    //can signal for an agreed upon mediator to receive the funds who would then distribute them per a mediation agreement \n    //outside of this contract.\n    function forceDissolve() public payable returns(bool){\n        require(payeeWantsOut || payerWantsOut);\n        \n        if (payerMediatorAddress == payeeMediatorAddress){\n            selfdestruct(payerMediatorAddress);\n        } else {\n            if (forceDissolveStartTime == 0){\n              forceDissolveStartTime = now;\n            } else if (now > forceDissolveStartTime + forceDissolveDelay){\n                uint256 splitPayment = paymentNumberToValue[nextPayment]/2;\n                paymentNumberToValue[nextPayment]=0;\n                payee.transfer(splitPayment);\n                selfdestruct(payer);\n            } else {\n            return false;\n            }\n        }\n        \n        return true;\n    }\n    \n    //if payer and payee find common ground and choose to continue with initial contract can reset the forceDissolve() timer\n    //and keep going with initial agreement\n    function resetForceDissolve() public returns(bool){\n        require(!payeeWantsOut && !payerWantsOut);\n        forceDissolveStartTime = 0;\n        return true;\n    }\n    \n    //payer and payee can confirm agreement to mediation by providing the same mediator address\n    function setMediatorAddress(address payable _mediatorAddress) public returns(bool){\n        require(msg.sender==payer || msg.sender==payee);\n        if (msg.sender==payer){\n            payerMediatorAddress = _mediatorAddress;\n        } else {\n            payeeMediatorAddress = _mediatorAddress;\n        }\n        return true;\n    }\n    \n    //returns time remaining until forceDissolve() will split nextPayment and destroy contract\n    function timeRemaining() public view returns(uint256){\n        if (forceDissolveStartTime > 0){\n        return forceDissolveStartTime + forceDissolveDelay - now;\n        } else {\n            return 0;\n        }\n    }\n    \n    //returns remaining balance, used while testing in JavaScript VM mode can be removed for mainnet as contract\n    //balance appears on Etherscan\n    function remainingBalance() public view returns(uint256){\n        return address(this).balance;\n    }\n    \n   \n    \n}\n\n\n//    \"0xCA35b7d915458EF540aDe6068dFe2F44E8fa733c\",\"0x14723A09ACff6D2A60DcdF7aA4AFf308FDDC160C\",\"1000000000000000000\",\"9\",\"180\"",
  "sourcePath": "/Users/erick/eth/progpay/contracts/ProgPayETH.sol",
  "compiler": {
    "name": "solc",
    "version": "0.6.1+commit.e6f7d5a4.Emscripten.clang"
  },
  "schemaVersion": "3.0.23",
  "updatedAt": "2020-03-22T19:09:37.819Z",
  "networkType": "ethereum",
  "devdoc": {
    "methods": {}
  },
  "userdoc": {
    "methods": {}
  }
}